:020000040800F2
:10000000C807002065010008650A00085D0A0008AD
:10001000610A0008030400084514000800000000FD
:10002000000000000000000000000000930A00082B
:10003000E909000800000000910A0008950A00087C
:100040007F0100087F0100087F0100087F01000890
:100050007F0100087F0100087F0100087F01000880
:100060007F010008ED0900087F0100087F010008FA
:100070007F0100087F0100087F0100087F01000860
:100080007F0100087F0100087F0100087F01000850
:10009000090400087F0100087F0100087F010008B3
:1000A0007F0100087F0100087F0100087F01000830
:1000B0002D0B00087F0100087F0100087F01000868
:1000C0007F0100087F0100087F0100087F01000810
:1000D0007F0100086F0B0008710B00080512000873
:1000E000EB0900087F0100087F0100087F0100087C
:1000F0007F0100087F0100087F0100080000000068
:100100007F010008000000007F0100087F01000857
:100110007F0100087F0100087F0100087F010008BF
:100120007F0100087F0100087F0100087F010008AF
:100130007F01000800000000000000007F010008AF
:10014000B90900087F0100087F0100087F0100084D
:10015000DFF80CD000F016F9004800475D2B0008CE
:10016000C80700200648804706480047FEE7FEE72C
:10017000FEE7FEE7FEE7FEE7FEE7FEE7FEE7FEE757
:10018000D50A00085101000840EA01039B0703D08B
:1001900009E008C9121F08C0042AFAD203E011F8C6
:1001A000013B00F8013B521EF9D27047D2B201E088
:1001B00000F8012B491EFBD270470022F6E710B56C
:1001C00013460A4604461946FFF7F0FF204610BDC5
:1001D000421C10F8011B0029FBD1801A704703460E
:1001E00011F8012B00F8012B002AF9D118467047AD
:1001F0002DE9F04791460F4680460446002614F844
:10020000015B2DB100F06AF80068405DC007F6D1CF
:100210002B2D02D02D2D18D0641E4A46394620467B
:1002200000F060F827B13968A14201D1C7F8008019
:1002300071054FF002040BD54042002803DD01F0A8
:1002400017F90460A007BDE8F08746F48066E4E78C
:100250000028F8DA01F00CF904606FF00040F2E7D2
:1002600070B5064601F004F9046805460A2200212B
:100270003046FFF7BDFF2C6070BD2DE9F05F0546ED
:10028000002092469B4688460646814640241BE055
:10029000284641464746224600F095F853465A46BE
:1002A000C01A914110D311461846224600F07CF83E
:1002B0002D1A67EB01084F4622460120002100F06D
:1002C00073F817EB00094E41201EA4F10104DFDC96
:1002D000484631462A464346BDE8F09F00487047ED
:1002E000D85800082DE9F05F8246007800271546AF
:1002F0008B460AF10104B946302801D09DB113E0C4
:1003000014F8010B0127782803D0582801D045B1F3
:100310000AE00DB1102D07D10027102514F8010BAC
:1003200002E0082500E00A250026B0460EE005FBA5
:10033000080005FB06F1012701EB10461FFA80F8C3
:10034000B6F5803F00D3B94614F8010B294600F0FA
:100350004AF80028EBDABBF1000F05D00FB1641E9C
:1003600000E05446CBF80040B9F1000F06D001F090
:100370007FF802210160C81EBDE8F09F48EA0640F0
:10038000FAE70000064C074D06E0E06840F0010384
:1003900094E8070098471034AC42F6D3FFF7DCFE30
:1003A000DC580008FC580008202A04DB203A00FA38
:1003B00002F1002070479140C2F1200320FA03F3BC
:1003C000194390407047202A04DB203A21FA02F0BA
:1003D0000021704721FA02F3D040C2F1200291407F
:1003E0000843194670473A2800D2303820F02002DE
:1003F000412A01D3A2F13700884201D34FF0FF30E8
:10040000704700BFFEE7000010B590B0FD4A002124
:10041000FD4801F085FE0120FC490870F94800689C
:10042000B0F5787F17D1F748C07B00F05000502816
:1004300005D0F448007C00F00300032807D1012018
:10044000F349087002F092FCF249086073E2002060
:10045000EF4908706FE2EB48006840F253118842A0
:1004600011D1E848407B00F01000102807D101208E
:10047000E749087002F07AFCE64908605BE2002078
:10048000E349087057E2DF48006840F24351884270
:1004900011D1DC48C07A00F00200022807D1012007
:1004A000DB49087002F062FCDA49086043E2002090
:1004B000D74908703FE2D348006840F216318842BD
:1004C00014D1D048C07A00F0010038B10120D049E1
:1004D000087002F04BFCCF49086002E00020CC49D4
:1004E0000870C848407CCC49087024E2C5480068C0
:1004F000A0280AD1C348417D007D41EA00201E2189
:1005000090FBF1F0C449087015E2BE480068B0F5F0
:10051000886F04D1BB48407BBF4908700BE2B948E3
:100520000068B0F5897F04D1B648407BBA490870AD
:1005300001E2B448006840F2F141884207D1B14974
:10054000087B00EBD0714910B34A1170F3E1AD485C
:10055000006840F20C51884210D16420A9490090F3
:100560008A7BC97B42EA0120002340F262624FF499
:10057000806102F0EFFBA9490860DCE1A148006856
:1005800040F22521884211D164209E490090CA7B07
:10059000097C42EA0121C1F30B0000234FF43472BD
:1005A000194602F0D7FB9D490860C4E195480068F0
:1005B000202803D093480068022807D101209449DD
:1005C000087002F0D3FB93490860B4E18D480068DD
:1005D00040F29F1188420BD18A48007B8949C97A31
:1005E00040EA01200A2190FBF1F08B490870A2E15A
:1005F00084480068B0F5217F0AD18248017CC07B25
:1006000041EA0020642190FBF1F08349087092E1F7
:100610007C48006840F21B51884216D17948C07A64
:10062000012802D17E49C8730CE07648C07A0228BE
:1006300002D17B49C87305E07248C07A032801D112
:100640007749C87302F08CF875E16E48006840F293
:10065000D441884219D16B48C07B202803D10120A6
:100660006F49C8730EE06748C07B402803D1022061
:100670006B49C87306E06348C07B602802D1032041
:100680006749C87302F06CF855E15E480068B0F540
:10069000687F7CD163480078062878D15948007D6E
:1006A00068B95848C07B5E4908705648007C48705D
:1006B0005448407C88705348807CC8703BE1514866
:1006C000007D01283DD14F48C07B00EE100AB8EEF6
:1006D000400ADFED550A20EE200ABCEEC00A10EEFB
:1006E000100A4F4908704748007C00EE100AB8EE27
:1006F000400ADFED4D0A20EE200ABCEEC00A10EEE3
:10070000100A48703F48407C00EE100AB8EE400ADC
:10071000DFED450A20EE200ABCEEC00A10EE100AFA
:1007200088703848807C00EE100AB8EE400ADFED91
:100730003E0A20EE200ABCEEC00A10EE100AC87075
:10074000F9E03048007D02289ED12E48C07B00EEA3
:10075000100AB8EE400ADFED350A20EE200ABCEEA2
:10076000C00A10EE100A2E4908702648007C00EEE0
:10077000100AB8EE400ADFED2D0A20EE200ABCEE8A
:10078000C00A10EE100A48701E48407C00E01CE0D1
:1007900000EE100AB8EE400ADFED240A20EE200A2F
:1007A000BCEEC00A10EE100A88701648807C00EE7D
:1007B000100AB8EE400ADFED1D0A20EE200ABCEE5A
:1007C000C00A10EE100AC870B5E00E48006840F28A
:1007D0009351884214D113480078072810D1094852
:1007E000007B012824D10748407B0D49087005484B
:1007F000807B48700348C07B88700248007CC870CA
:1008000099E0000028020020006400405C00002005
:10081000540000204800002055000020580000200F
:10082000B803002028000020F7A5393FF7A5B93FFD
:100830005948007B09283DD15748407B00EE100AFB
:10084000B8EE400A5FED080A20EE200ABCEEC00AAE
:1008500010EE100A514908704F48807B00EE100AD4
:10086000B8EE400A5FED100A20EE200ABCEEC00A86
:1008700010EE100A48704848C07B00EE100AB8EE2F
:10088000400A5FED170A20EE200ABCEEC00A10EE07
:10089000100A88704048007C00EE100AB8EE400A4A
:1008A0005FED1F0A20EE200ABCEEC00A10EE100A0F
:1008B000C87040E03848007B11283CD13648407B66
:1008C00000EE100AB8EE400A5FED280A20EE200A7A
:1008D000BCEEC00A10EE100A304908702E48807B2A
:1008E00000EE100AB8EE400A5FED300A20EE200A52
:1008F000BCEEC00A10EE100A48702748C07B00EE1C
:10090000100AB8EE400A5FED370A20EE200ABCEE6E
:10091000C00A10EE100A88701F48007C00EE100A12
:10092000B8EE400A5FED3F0A20EE200ABCEEC00A96
:1009300010EE100AC8701A480068002827DB184813
:100940000068642823DC17490978154A1268881A58
:10095000002801DB014600E0414201291ADB104872
:1009600000781049087040216846FFF726FC0C48C3
:100970000DA10268684600F067FD6846FFF728FC95
:10098000C4B2224669460B4800F0D1F802E00020CC
:100990000349086010B010BD28020020B8030020F1
:1009A0005800002047000020246943415230322C77
:1009B00025642300004400407047000070B50446E1
:1009C000FF2500262146074801F08CFC064600E082
:1009D0006D1E3146034801F031FE012801D0002D83
:1009E000F6D170BD0064004070477047704700004A
:1009F00010B540F2026002F0EFFA40F2036002F03C
:100A0000EBFA40F2046002F0E7FA40F2056002F00F
:100A1000E3FA40F2127002F0DFFA40F2117002F0D5
:100A2000DBFA4FF48043032210210A4801F0E8FF6B
:100A30004FF48041074801F0DFFF4FF400530322D9
:100A40001021054801F0DCFF4FF40051024801F08D
:100A5000D3FF10BD00100140000C014000BFFEE7B5
:100A600000BFFEE77047000010B5002807DA0A074C
:100A7000140E054A00F00F031B1FD45403E00A07AD
:100A8000130E024A135410BD18ED00E000E400E01C
:100A90007047704710B501F0B5FE0B480068401C68
:100AA0000949086009480068401C08490860084670
:100AB0000068642806D30020086005480068401CD0
:100AC0000349086010BD0000380000204C000020E1
:100AD0003C00002010B51248006840F47000104936
:100AE00008601048006840F001000E4908600020CE
:100AF0004860C862084600680B4908400949086018
:100B00004FF47F0088600846006820F48020086069
:100B100002F09EFC00214FF0006002F093F910BD3E
:100B200088ED00E000100240FFFFF6EA70472DE973
:100B3000F04107460D461646002405E0295D38467B
:100B400000F006F8601CC4B2B442F7DBBDE8F081E7
:100B500070B504460D462946204604F022FD00BF2C
:100B60000721204604F07CFD0028F9D070BD7047B5
:100B700010B594B0F849F94804F09BFD80B1F848ED
:100B8000007840280BD2F54804F006FDC1B2F448C5
:100B900002780078401CF24B1870F248815408E348
:100BA000F149EE4804F085FD00286FD00120EF499F
:100BB0000870EB48007802280FD10020EC498860CB
:100BC000EC498860EC498860EC498860E449087029
:100BD0004021E448FFF7F1FA59E2E148007808289B
:100BE00007D0DF4800780A2803D0DD4800780F28B6
:100BF00070D1DC48407869286DD1DA488078432884
:100C0000FAD1D848C0784128F6D1D6480079522880
:100C1000F2D1D448407930281CD1D248807930288C
:100C200018D1402104A8FFF7C8FAD54800684FF44E
:100C30001671B0FBF1F42246D2A104A800F004FC26
:100C400004A8FFF7C5FAC4B2224604A9C348FFF7B7
:100C50006EFF18E2C3484079302818D1C148807926
:100C6000322814D1402104A8FFF7A7FAC848C9A127
:100C7000026804A800F0E8FB04A8FFF7A9FAC4B2D0
:100C8000224604A9B548FFF752FFFCE110E2B5483F
:100C90004079302820D1B348807935281CD14021B3
:100CA00004A8FFF78AFABE48C078BD498978CDE923
:100CB0000010BB4843780278BAA104A800F0C4FB36
:100CC00004A8FFF785FAC4B2224604A9A348FFF797
:100CD0002EFFD8E1BAE0B3E0A24840793028B8D17D
:100CE000A04880793628B4D19E48007A302817D1A0
:100CF000402104A8FFF761FAB048807B0090AF481C
:100D0000037B427BAEA104A800F09EFB04A8FFF782
:100D10005FFAC4B2224604A99048FFF708FFB2E187
:100D20009048007A31282BD10020129013908D48E2
:100D3000D0F80A00129000208DF84C0012A8FFF79E
:100D40008FFA9E494873A34801689C4802F0A6F9AF
:100D5000402102A8FFF731FA9848807B009097481D
:100D6000037B427B96A102A800F06EFB02A8FFF76E
:100D70002FFAC4B2224602A97848FFF7D8FE82E1D2
:100D80007848007A32282BD10020129013907548B1
:100D9000D0F80A00129000208DF84C0012A8FFF73E
:100DA0005FFA864908738B480168844802F076F937
:100DB000402102A8FFF701FA8048807B00907F481D
:100DC000037B427B7EA102A800F03EFB02A8FFF756
:100DD000FFF9C4B2224602A96048FFF7A8FE52E11B
:100DE0006048007A33289AD10020129013905D4811
:100DF000D0F80A00129000208DF84C0012A8FFF7DE
:100E00002FFA6E498873734801686C4802F046F9FE
:100E1000402102A8FFF7D1F96848807B009067481D
:100E2000037B427B66A102A800F00EFB02A8FFF73D
:100E3000CFF9C4B2224602A94848FFF778FE22E162
:100E4000402248496448FFF772FE1CE1444800789C
:100E50000D2875D143484078692890D14148807861
:100E600043288CD13F48C078412888D13D4800793B
:100E7000522884D13B4840793028B0D13948807914
:100E80003328ACD10020129013903648806812901D
:100E900000208DF84C004F4802F0E2F812A8FFF74E
:100EA000DFF94C490968884254D0402102A8FFF775
:100EB00084F912A8FFF7D4F904462346454847A110
:100EC000026802A800F0C0FA02A8FFF781F9C4B2D4
:100ED000224602A92148FFF72AFE12A8FFF7C0F90F
:100EE00004462146354802F0D9F812A8FFF7B8F9B0
:100EF0003849086008460068401C18B900203B4982
:100F0000087096E03348006840F2E931884203D126
:100F10000120364908708CE02E48006840F2EA3122
:100F2000884203D102203149087082E029480068D4
:100F300040F2EB31884204D103202C49087078E05C
:100F40009CE024480068B0F57B7F51D104202749FC
:100F500008706EE072E000000503050000440040E8
:100F6000000000205801002004200B224500002032
:100F7000B4000020C8000020DC000020F0000020A9
:100F80003C000020246943415230302C256423006A
:100F900058000020246943415230322C256423003C
:100FA00014000020246943415230352C2532782525
:100FB000327825327825327823000000B8030020EB
:100FC000246943415230362C253278253278253237
:100FD0007823000024000020004800402469434199
:100FE0005230332C25642D25642300002800002076
:100FF0007148006840F2ED31884203D105206F4905
:10100000087016E06C48006840F2EE31884203D167
:1010100006206A4908700CE06748006840F2EF312A
:10102000884203D107206549087002E00020634927
:1010300008706248007803F02FFD19E0402102A8F3
:10104000FFF7BBF812A8FFF70BF9044623465A48EE
:10105000AFF27801026802A800F0F6F902A8FFF7E3
:10106000B7F8C4B2224602A95548FFF760FD00BF99
:1010700012A8FFF7F5F85049086004E040225149F2
:101080005148FFF754FD40214E48FFF796F84F486E
:1010900000784F49087000204C49087042F20B213B
:1010A000474804F0D0FA4B49454804F0F5FA80E08F
:1010B0000921434804F0C7FA0821414804F0C3FA63
:1010C00007213F4804F0BFFA06213D4804F0BBFA6F
:1010D00005213B4804F0B7FA0421394804F0B3FA7B
:1010E0000321374804F0AFFA0221354804F0ABFA87
:1010F0000121334804F0A7FA0021314804F0A3FA93
:1011000042F210212E4804F09EFA42F20C212C48A3
:1011100004F099FA42F20B21294804F094FA43F2C0
:101120000801274804F08FFA4FF44271244804F074
:10113000B3FA2949224804F0AFFA2849204804F0BC
:10114000ABFA27491E4804F0A7FA26491C4804F0C8
:10115000A3FA25491A4804F09FFA2449184804F0D4
:101160009BFA2349164804F097FA2249144804F0E0
:1011700093FA2149124804F08FFA2049104804F0EC
:101180008BFA1F490E4804F087FA12490C4804F004
:1011900083FA1B490A4804F07FFA1949084804F009
:1011A0007BFA1749064804F077FA1549044804F019
:1011B00073FA14B010BD00002400002028000020A5
:1011C000004400405801002000480040000000207A
:1011D0004200002004200B2207030700060306003C
:1011E00005030500050303000403040006040800CA
:1011F0000A050900000503000005020000050100C2
:1012000005200C2210B588B07349744804F051FAD7
:1012100080B17348007840280BD2704804F0BCF9C4
:10122000C1B26F4802780078401C6D4B18706D4851
:101230008154CEE06C49694804F03BFA002847D05D
:101240006AA2D2E90031D2E90202CDE90431CDE946
:10125000060204A8FEF7BCFFC4B2224604A96748F0
:10126000FFF765FC0120664908706648007806288B
:1012700008D064480078072804D0594801785948B4
:1012800003F062FE40215748FEF797FF544800786C
:101290005D49087000205249087042F20B214F4806
:1012A00004F0D1F950494D4804F0F6F957A3D3E9B9
:1012B00001021968DB6801AC0DC400916846FEF7B5
:1012C00087FFC4B2224669464C48FFF730FC80E0F5
:1012D0000921424804F0B7F90821404804F0B3F965
:1012E00007213E4804F0AFF906213C4804F0ABF971
:1012F00005213A4804F0A7F90421384804F0A3F97D
:101300000321364804F09FF90221344804F09BF988
:101310000121324804F097F90021304804F093F994
:1013200042F210212D4804F08EF942F20C212B4894
:1013300004F089F942F20B21284804F084F943F2C1
:101340000801264804F07FF94FF44271234804F065
:10135000A3F93249214804F09FF931491F4804F0AC
:101360009BF91D491D4804F097F92E491B4804F0CC
:1013700093F92D49194804F08FF92C49174804F0C6
:101380008BF92B49154804F087F92A49134804F0D2
:1013900083F92949114804F07FF928490F4804F0DE
:1013A0007BF927490D4804F077F90F490B4804F001
:1013B00073F92349094804F06FF92149074804F0FB
:1013C0006BF91F49054804F067F91D49034804F00B
:1013D00063F908B010BD0000050305000048004097
:1013E000010000209801002004200B222458754C95
:1013F000794E6761745541525432230000380140E0
:1014000046000020280000204300002024456E6490
:101410004E676174554152543223000007030700A0
:101420000603060005030300040304000604080085
:101430000A0509000005030000050200000501007F
:1014400005200C2200BFFEE70FB4084B10B504A91D
:1014500002AA039800F020F8044602A9002000F038
:101460004CFA204610BC5DF814FB0000FB18000885
:1014700000487047A000002002E008C8121F08C101
:10148000002AFAD170477047002001E001C1121F05
:10149000002AFBD1704700002DE9FF4F8DB00F46A9
:1014A0000546002606E025280BD0DDE90F129047FF
:1014B0006D1C761C28780028F5D111B03046BDE8A7
:1014C000F08F0024A246A1460122EC4900E004432B
:1014D00015F8013F203B02FA03F00842F7D12878C3
:1014E0002A2810D06FF02F022878A0F130010929A6
:1014F00014D80AEB8A0102EB410144F0020400EB2C
:10150000010A6D1CF0E701CF5FEA000A03D544F43D
:101510000054CAF1000A44F002046D1C28782E28F9
:1015200017D115F8010F44F004042A280ED06FF0EB
:101530002F022878A0F1300109290AD809EB890186
:1015400002EB410100EB01096D1CF2E757F8049B27
:101550006D1C28786C280FD006DC4C2817D0682822
:101560000DD06A2814D104E0742810D07A280FD145
:101570000DE044F400140AE044F4801401E044F463
:1015800040146978814202D104F580146D1C6D1CF1
:101590002A786E2A1FD00CDC632A31D004DC002AA2
:1015A0008BD0582A11D1A3E0642A68D0692A0CD1C3
:1015B00065E0732A2ED004DC6F2A73D0702A04D120
:1015C0009BE0752A6FD0782A6ED01046DDE90F12A5
:1015D0009047761C50E1C4F30250022806D003283D
:1015E00009D0042801CF09D0066045E101CFF117E9
:1015F000C0E9006140E101CF06803DE106703BE1BA
:1016000017F8040B8DF8000000208DF80100EB4660
:10161000012003E057F804BB4FF0FF3061074FF0A3
:10162000000102D40DE008F10101884649450FDAB6
:101630008045F8DB1BF808100029F4D108E008F118
:10164000010188468142FADB1BF808100029F6D117
:10165000DDE90F23AAEB08008146214600F036F9A8
:10166000304400EB080604E0DDE90F121BF8010B23
:101670009047B8F10108F7D221464846F7E00A2121
:10168000C4F302534FF0000B0891022B04D001CF9A
:10169000C117032B09D00AE0FF1D27F00707F7E861
:1016A000020108E032E01FE020E000B2C117042B85
:1016B00001D140B2C117031E71F1000307DA4FF0E8
:1016C000000CD0EB0C006CEB01012D2302E0230594
:1016D00004D52B238DF82430012303E0E30701D048
:1016E0002023F7E7984658E00A2110E010210EE089
:1016F00010204FF0000B08900CE010214FF0000B71
:1017000044F004044FF00809089103E008214FF069
:10171000000B0891C4F30253022B04D001CF002127
:10172000032B06D006E0FF1D27F00707F7E80201AC
:1017300003E080B2042B00D1C0B24FF000082307B1
:101740002BD5702A07D0DDF820C08CF0100C5CEA95
:101750000B0C05D00EE040238DF82430012308E067
:1017600050EA010306D030238DF824308DF825206F
:1017700002239846DDF820C08CF0080C5CEA0B0CC4
:101780000BD150EA010301D1630706D530238DF850
:1017900024304FF00108A9F10109582A04D038A2D9
:1017A0000B9208AA0A920BE03AA2F9E75B46089A64
:1017B000FEF763FD0B9B9B5C0A9A521E0A92137004
:1017C00050EA0102F2D10A98ADEB000000F1200BC3
:1017D000600702D524F4803401E04FF00109D945B7
:1017E00002DDA9EB0B0000E0002000EB0B014144FF
:1017F0000890AAEB010AE00306D4DDE90F23214695
:10180000504600F063F806444FF0000908E009A9CB
:1018100011F80900DDE90F12904709F10109761C62
:10182000C145F4DBE0030CD5DDE90F23214650462A
:1018300000F04CF8064404E0DDE90F123020904738
:10184000761C0899481E08900029F5DC08E00A98E3
:101850000A990078491C0A91DDE90F129047761C1D
:10186000BBF10001ABF1010BF1DC21465046DDE993
:101870000F2300F019F806446D1C1BE6092801002F
:1018800030313233343536373839616263646566F6
:1018900000000000303132333435363738394142B8
:1018A00043444546000000002DE9F0410446002570
:1018B0001E461746880404D405E039462020B04768
:1018C0006D1C641EF9D52846BDE8F0812DE9F04174
:1018D000044600251E469046C80301D5302700E087
:1018E0002027880404D505E041463846B0476D1CE2
:1018F000641EF9D52846BDE8F0810A68531C0B60C8
:10190000107070473EB504464FF6FF700290A07A03
:10191000022802DC4FF0FF303EBDA07A801E82B26A
:1019200004F10D0102A800F039FF20780190208811
:10193000C0F3072000909DF8000040F0F8000090F0
:10194000012201A902A800F029FF0122694602A88C
:1019500000F024FFBDF80800E072BDF80800010A9D
:1019600021730020D8E7000010B58CB004464FF476
:10197000C06001F031FB40F2197001F02DFB40F224
:10198000036001F029FB4FF48073032248217A4859
:1019900001F036F84FF4007303221821764801F065
:1019A0002FF801214FF4EA1001F090F809A9002066
:1019B00000F0D2FD03A9022000F0CEFD6F4800F038
:1019C000FFF86E4800F0E8F800208DF828000120AC
:1019D0008DF8290000208DF82A008DF82B000120B9
:1019E0008DF82C008DF82D0000208DF8240048F291
:1019F0003520844216D17820ADF82E0002208DF8D3
:101A000025000A208DF8260002208DF82700ADF869
:101A100020008DF81C000A208DF81D0002208DF892
:101A20001E0070E05648844217D12D20ADF82E00DC
:101A300003208DF825000A208DF8260003208DF85C
:101A400027000220ADF820008DF81C000A208DF838
:101A50001D0002208DF81E0055E04A48844216D130
:101A60002820ADF82E0002208DF825000A208DF8E0
:101A7000260002208DF82700ADF820008DF81C000C
:101A80000A208DF81D0002208DF81E003BE03E4824
:101A9000844218D12020ADF82E0002208DF82500B8
:101AA0000A208DF8260002208DF827000320ADF8CB
:101AB000200001208DF81C0006208DF81D0001205B
:101AC0008DF81E001FE03148844218D10F20ADF878
:101AD0002E0000208DF8250005208DF8260000201E
:101AE0008DF827000320ADF8200002208DF81C009F
:101AF00005208DF81D0002208DF81E0003E0214610
:101B00001E4800F0FDF909A91C4800F033FA012035
:101B10008DF80C008DF80D008DF80E0004208DF866
:101B200008000020019004208DF8090001A804900D
:101B300000200590069003A9104800F05BF81449B6
:101B4000032000F009FD1349032000F005FD0023E8
:101B50001A461946184600F04FF9002201211420B8
:101B600001F010F90221054800F0D6FA09490420D5
:101B700000F0F2FC0CB010BD000C0140006400400D
:101B800085450100A086010048E8010020A107006A
:101B9000180300206803002010B50446206820F4D4
:101BA000803020600548844203D1001400F018FE04
:101BB00003E04FF4001000F013FE10BD006400407D
:101BC00010B504460A48844208D140F2194001F099
:101BD00023FA40F2194001F00FFA07E040F21A40F0
:101BE00001F01AFA40F21A4001F006FA10BD0000A6
:101BF0000064004070B502464FF6FF74002309B937
:101C0000002070BD106820F002001060106840F0E5
:101C10000100106000E0641E506800F0010008B987
:101C2000002CF8D1506800F0010008B90020E8E766
:101C3000087C4FF0E06505EA00604D7C4FF47026AB
:101C400006EA054528438D7C4FF4E00606EA055573
:101C500028438D8A6D1EC5F309052843D062D1E95A
:101C6000025040EA05034878012802D123F004031A
:101C700001E043F004038878012817D143F01003F2
:101C8000486888B14868007800F02000034348683D
:101C9000007900F07F004D686D794FF4FE4606EA4A
:101CA00005252843906203E00020AAE723F01003F3
:101CB0000878012802D143F0010301E023F0010379
:101CC0001362106820F0010010604FF6FF7400E00E
:101CD000641E506800F0010008B1002CF8D10CB966
:101CE00000208EE701208CE710B50021837A0122C5
:101CF00002FA03F13E4A126842F001023C4B1A60BC
:101D00003B4A1C3212688A43394B1C331A60C28921
:101D1000DAB9374A0C3212688A43354B0C331A60F1
:101D2000C288344B03EA024243881A434389304C49
:101D3000403444F8332082882E4B03EA0242038861
:101D40001A43438904EBC3035A60C289012A1BD199
:101D5000274A0C3212680A43254B0C331A6002885A
:101D6000244B03EA024243881A434389204C4034FF
:101D700044F8332082881F4B03EA0242C3881A4387
:101D8000438904EBC3035A6082893AB9184A121D89
:101D900012688A43164B1B1D1A6006E0144A121D76
:101DA00012680A43124B1B1D1A6002893AB9104A85
:101DB000143212688A430E4B14331A6006E00C4A40
:101DC000143212680A430A4B14331A60027C012A47
:101DD00006D1074A1C3212680A43054B1C331A60AD
:101DE000034A126822F00102014B1A6010BD000084
:101DF000006600400000FFFFF0B585B004460D46C8
:101E000016461F466946012000F0A6FBADF80A7091
:101E10000020ADF80C000120ADF80E008DF8100088
:101E200036B1012E1AD0022E2ED0032E60D145E0FD
:101E30000020ADF808004FF6FF7000EA4410ADF83E
:101E400000000020ADF802004FF6FF7000EA4510D8
:101E5000ADF804000020ADF806004BE00120ADF81D
:101E600008004FF6FF7000EA4410ADF800000020B3
:101E7000ADF802004FF6FF7000EA4510ADF804001F
:101E80000020ADF8060035E00020ADF80800C4F3EE
:101E90004F30ADF800004FF6FF7000EAC400001D9F
:101EA000ADF80200C5F34F30ADF804004FF6FF70F7
:101EB00000EAC500001DADF806001BE00120ADF8EA
:101EC0000800C4F34F30ADF800004FF6FF7000EA91
:101ED000C400001DADF80200C5F34F30ADF804009A
:101EE0004FF6FF7000EAC500001DADF8060001E0E6
:101EF00000BFFEE700BF6846FFF7F6FE05B0F0BD85
:101F00002DE9F04104460E464FF00108184886427C
:101F100029D80121204600F0CFFB012818D1E7691C
:101F200007F04047256A05F0010058B945F0010562
:101F30002562304600F072FC3843E06125F001056F
:101F4000256207E0304600F069FC3843E06101E0BB
:101F50004FF000080221204600F0AEFB012804D01B
:101F60004FF0000801E04FF000084046BDE8F08166
:101F700040420F00F0B502464FF6FF74002015688E
:101F800025F002051560156845F00105156000E0B3
:101F9000641E556805F001050DB9002CF8D155688F
:101FA00005F001050DB90020B5E0136A03F0010545
:101FB0007DBB43F0010313620D784FF0404606EA03
:101FC00085754E784FF0F85707EA066635438E78E8
:101FD0004FF4702707EA06468F784FF4E05C0CEA6E
:101FE00087173E433543CE784FF4E00707EA06569D
:101FF000CF784FF4C04C0CEA87273E4335434E89D7
:10200000761EC6F309063543D56123F0010313623A
:1020100029E0FFE70D784FF0404606EA85754E78D7
:102020004FF0F85707EA066635438E784FF470276D
:1020300007EA06468F784FF4E05C0CEA87173E43C8
:102040003543CE784FF4E00707EA0656CF784FF4D1
:10205000C04C0CEA87273E4335434E89761EC6F3B3
:1020600009063543D5610D79012D04D1156845F078
:102070008005156003E0156825F0800515604D7931
:10208000012D04D1156845F04005156003E0156881
:1020900025F0400515608D79012D04D1156845F0B6
:1020A0002005156003E0156825F020051560CD7941
:1020B000012D04D1156825F01005156003E01568A1
:1020C00045F0100515600D7A012D04D1156845F015
:1020D0000805156003E0156825F0080515604D7AC0
:1020E000012D04D1156845F00405156003E015685D
:1020F00025F004051560156825F0010515604FF6FB
:10210000FF7400E0641E556805F001050DB1002C58
:10211000F8D104B10120F0BD42690A434261704721
:10212000F8B50026002500F5D87707EB01173F68C2
:1021300007F004071772177A3FB900F5D87707EB55
:1021400001173F687F0D176006E000F5D87707EBB1
:1021500001173F68FF08576000F5D87707EB0117B4
:102160003F6807F00207577200F5DA7707EB0117AF
:102170003F683F0A82F84B7000F5DA7707EB0117EA
:102180003F6807F08007FF0982F84C70076A07F084
:102190000106002E51D192F84C70EFBB00F5DA77B2
:1021A00007EB01173F6807F00F07977200F5DC7720
:1021B00007EB01173F68D77200F5DC7707EB0117D3
:1021C0003F684FEA172C82F80CC000F5DC7707EB6C
:1021D00001173F684FEA174C82F80DC000F5DC7715
:1021E00007EB01173F684FEA176C82F80EC000F545
:1021F000DE7707EB01173F68D77300F5DE7707EB53
:1022000001173F684FEA172C82F810C000F5DE77FF
:1022100007EB01173F6800E00DE04FEA174C82F82A
:1022200011C000F5DE7707EB01173F684FEA176C26
:1022300082F812C049E000BFFEE700F5DA7707EB4D
:1022400001173F6807F00F05082D01D8957206E0C9
:10225000A5F10907DFF888C01CF80770977200F530
:10226000DA7707EB01173F68C7F3401782F84D7024
:1022700000F5DA7707EB01173F68C7F3001782F81C
:102280004E70977ABB08012B04D1977A042F01D0A6
:102290005F1CFBB202F10B0700973BB900F5DC773E
:1022A00007EB01173C68009F3C600EE00BE000F577
:1022B000DC7707EB01173C68009F3C60009F3F1DE7
:1022C00000975F1EFBB2002BF1D121B9C76847F020
:1022D0002007C76003E0076947F020070761F8BDE2
:1022E0007C5700082DE9F84103460A4600210024E6
:1022F000002600270025986800F08060B0F1806F0C
:1023000000D110E0986800F00060B0F1006F01D1DA
:10231000012108E0986800F08050B0F1805F01D1A1
:10232000022100E00321032902D10320BDE8F88146
:1023300003F5C07000EB0110006800F0010C03F51C
:10234000C07000EB0110C0F800C0107AB8B9108856
:10235000DFF8FCC10CEA405092F809C040EA0C00DA
:1023600003F5C07C0CEB011CDCF800C040EA0C005B
:1023700003F5C07C0CEB011CCCF800001AE06FF0F8
:10238000070C50680CEAC00092F808C040EA0C0044
:1023900092F809C040EA0C0003F5C07C0CEB011C6C
:1023A000DCF800C040EA0C0003F5C07C0CEB011C1B
:1023B000CCF8000092F84B00F0BB03F5C27000EBC4
:1023C0000110006820F0BF0C03F5C27000EB011093
:1023D000C0F800C003F5C27000EB0110006892F86D
:1023E0000AC040EA0C0003F5C27C0CEB011CCCF8DF
:1023F0000000907B4FF07F4C0CEA006092F80DC01B
:102400004FF47F0808EA0C4C40EA0C0092F80CC02C
:102410004FF47F4808EA0C2C40EA0C0092F80BC0FD
:1024200040EA0C0003F5C47C0CEB011CCCF8000066
:10243000907C4FF07F4C00E01CE00CEA006092F8CA
:1024400011C04FF47F0808EA0C4C40EA0C0092F8E7
:1024500010C04FF47F4808EA0C2C40EA0C0092F8B8
:102460000FC040EA0C0003F5C67C0CEB011CCCF855
:1024700000005EE0186A00F00107002F57D0907A44
:10248000082802D8907A054317E000240AE0907AE1
:10249000DFF8C0C01CF804C0604501D1012603E08C
:1024A000601CC4B2072CF2D300BF012E03D104F18B
:1024B0000900054301E000BFFEE792F84C0040012F
:1024C00092F84DC040EA0C1092F84BC040EACC1094
:1024D000054303F5C27000EB01100560907A840893
:1024E000012C04D1907A042801D0601CC4B202F1FE
:1024F0000B0000904CB90098D0F800C003F5C470F0
:1025000000EB0110C0F800C013E00DE00098D0F817
:1025100000C003F5C47000EB0110C0F800C00098C3
:10252000001D0090601EC4B2002CEFD101E000BF7E
:10253000FEE703F5C07000EB0110006840F0010CED
:1025400003F5C07000EB0110C0F800C00846EDE6CE
:102550000000E0FF7C57000810B5024609B900BF33
:10256000FEE7052A65D2DFE802F0031521344B00AF
:1025700000234B71CB718B714FF480634B8100232F
:102580000B724B7002238B700023CB700B714B725C
:102590000B7050E00123CB8100230B740B810B8067
:1025A0004B808B80CB808B814B8144E04FF48063E8
:1025B0008B8200230B7402234B7401238B74002342
:1025C0008B70CB6001234B7000230B708B604B60D2
:1025D00031E000234B314B708B7001F84B390020F8
:1025E00005E0002401F10B031C54431CD8B2402821
:1025F000F7D300238B724B600B724B720B601AE0A7
:1026000000234C314B708B7001F84C39002005E0F1
:10261000002401F10B031C54431CD8B24028F7D30B
:1026200000238B724B600B7281F84B304B720B6046
:1026300001E000BFFEE700BF10BD000030B502465C
:102640000020002321B1012907D002290FD109E080
:102650009468144D04EA05030BE09468124D04EAF3
:10266000050306E09468114D04EA050301E0002328
:1026700000BF00BF53B1A3F18064E41E44B10C4D10
:102680002C443CB10B4D2C4444B905E0022007E03A
:10269000012005E0012003E0012001E0002000BF4F
:1026A00000BF30BD03000004000300080000031059
:1026B00003FDFFFB0003FDF710B502460B460020AB
:1026C0004FF6FF71012B17D1146824F00204146037
:1026D000146844F00104146000E0491E546804F0DA
:1026E00001040CB90029F8D1546804F001040CB9B4
:1026F000002034E0012032E0022B13D1146824F0D2
:102700000304146000E0491E546804F003040CB193
:102710000029F8D1546804F003040CB100201EE035
:1027200001201CE0042B19D1146824F0010414606A
:10273000146844F00204146000E0491E546804F078
:102740000204022C01D00029F7D1546804F00204DD
:10275000022C01D0002002E0012000E0002010BD8A
:1027600010B510220749084800F0E2FD48B10748BB
:102770000168054800F092FC102203490148FDF76A
:1027800003FD10BDA4000020B80300202400002099
:1027900001490A680260704703FC010830B518E07F
:1027A00011F8015B048884EA0524048000230EE00C
:1027B000048804F400442CB1048841F2210585EA20
:1027C000440401E00488640004805C1CE3B2082B2C
:1027D000EEDB141EA2F10105AAB2E1D130BD00006A
:1027E000024949688143014A51607047002004E072
:1027F0000349086000BF024909680029FBD17047FE
:10280000340000200448006820B103480068401EDE
:102810000149086070470000340000202DE9FE4F98
:1028200081460027B846274A07CA8DE807000220DC
:1028300000F012FBB0FBF9F69E20B6FBF0FB032084
:10284000B6FBF0F414E000270FE0F81C611C00FB5D
:1028500001F5B54201D9AD1B00E0751B0298A842F5
:1028600002D90194009702957F1C9E2FEDD9641E1A
:102870005C4503D34FF6FF708442E4D305210098F2
:10288000B0FBF1F80098A0EB08004FF4702101EACA
:1028900000400099A1EB08014FF4E05202EA8111D7
:1028A0000843910201EA08514FF4C04202EA88222B
:1028B000114308430199C1F3090140EA010A504656
:1028C000BDE8FE8F3C5800080149C8607047000011
:1028D000002002400348006940F08000014908617F
:1028E000704700000020024070B504464FF480108D
:1028F00000F01EF80546B5B90C48006940F002002A
:102900000A49086108464461006940F040000861D6
:102910004FF4801000F00CF805460448006920F0E0
:10292000020002490861284670BD000000200240F4
:1029300070B50546012400BF00F00CF804466D1E7A
:10294000012C01D1002DF7D1012C00D10524204606
:1029500070BD000000200E49C96801F0010109B1F5
:10296000012013E00A49C96801F0100109B10420EF
:102970000CE00749C96801F0040109B1022005E033
:102980000349C96801F0080101B103207047000044
:10299000002002400548006900F0800020B1044892
:1029A0000249486003484860704700000020024028
:1029B00023016745AB89EFCD70B504460D464FF452
:1029C0008010FFF7B5FF06468EB90A48006940F04F
:1029D00001000849086125604FF48010FFF7A8FF47
:1029E00006460448006920F00100024908613046AB
:1029F00070BD0000002002404161704701617047D6
:102A0000F0B5044616460025002201F00F0501F03E
:102A1000100747B1042E05D145F00305E76B1F43AE
:102A2000E76300E0354300201EE0012787401F4098
:102A3000C7B122684FEA800C0F2707FA0CF7BA4398
:102A4000870005FA07F73A43282904D10127874070
:102A50001F40676105E0482903D1012787401F40D7
:102A600027612260471CB8B20828DED3082022E084
:102A7000012787401F40E7B16268A0F108074FEACD
:102A8000870C0F2707FA0CF7BA43A0F10807BF001D
:102A900005FA07F73A43282904D1012787401F4048
:102AA000676105E0482903D1012787401F4027615E
:102AB0006260471CB8B21028DAD3F0BD0246D06875
:102AC000084008B1012070470020FCE7F0B50A4635
:102AD000002300240021002500F00046B6F1004F3D
:102AE00002D11D4EF16901E01B4E7168C0F3034530
:102AF00083B200F44016B6F5401F08D121F0E06122
:102B0000154E766826F0E066134F7E6012E000F402
:102B10008016B6F5801F06D1032606FA05F4A143F8
:102B200041F0E06106E0460D360103FA06F6B143D6
:102B300041F0E06122B1460D360103FA06F6314359
:102B400000F00046B6F1004F02D1034EF16101E002
:102B5000014E7160F0BD00000000014086B000F041
:102B60007BFCFDF745FF4FF4964002F0E1F84FF48F
:102B7000964002F037F94FF4964002F08BF94FF48B
:102B800080416848FFF73AFF4FF4FA70FFF730FED4
:102B90004FF480416348FFF72FFF634800F06CFA61
:102BA000624800F069FA624800F060FA614800F09B
:102BB000E3F8614800F0E0F8604800F0DDF86048B4
:102BC00000F0DAF85F48FFF7E3FD5E480068401C5C
:102BD000E0B94FF4FA70FFF70BFE4FF48041514813
:102BE000FFF70CFF6420FFF703FE4FF480414D48D0
:102BF000FFF702FF2E204C4908731A2048733C202F
:102C0000887351480168484800F048FA0021464856
:102C100000F012FA4C4800F023FA4B480068401CC0
:102C200018B900204949087047E04748006840F259
:102C3000E931884203D10120444908703DE042480F
:102C4000006840F2EA31884203D102203F4908700F
:102C500033E03D48006840F2EB31884203D1032065
:102C60003A49087029E038480068B0F57B7F03D105
:102C700004203649087020E03348006840F2ED3106
:102C8000884203D105203149087016E02E480068BB
:102C900040F2EE31884203D106202C4908700CE046
:102CA0002948006840F2EF31884203D107202749C4
:102CB000087002E00020254908702448007801F0DF
:102CC000EBFE102218491948FDF75EFA29E020486A
:102CD0000078012819D11448C068102212490090C8
:102CE00002A8FDF751FA1948007802A90EC900F0B0
:102CF000DBFB1648007840B110220B4902A8FDF713
:102D000043FA02A80FC800F0F1F91048007840B962
:102D10001022054902A8FDF737FA02A80FC800F0F3
:102D2000E5F9D4E700100140B8030020A40000201A
:102D300014000020B4000020C8000020DC000020A7
:102D4000F000002030000020240000202800002097
:102D50005400002070B50446049D601AEE1A7043BA
:102D6000561A90FBF6F0184470BD00000148006848
:102D70007047000038000020002101604160816040
:102D8000C16070472DE9F04103460D461646002408
:102D90000027A0462448006800F4E060B0F5A06F6A
:102DA00015D006DCB0F5407F18D0B0F5806F19D192
:102DB00010E0B0F5C06F06D0B0F5E06F12D100277B
:102DC0004FF0040815E001274FF0030811E0022737
:102DD000B8460EE003274FF001080AE004274FF041
:102DE000000806E04FF4A06000F022F80227B84681
:102DF00000BF00BFC7F1040005FA00F4C8F10401E8
:102E00000F20C8403040044324010848C45403F054
:102E10001F01012088405911890001F1E021C1F80A
:102E20000001BDE8F08100000CED00E000E400E0EE
:102E300002490143024A1160704700000000FA0590
:102E40000CED00E0024A0A400243024B1A60704750
:102E500080FFFF1F08ED00E02DE9F14F8EB000204C
:102E60000C9055A090E8004CC068CDE905BECDF8A7
:102E700010A0079051A0D0F804A00068CDE9020A84
:102E80000FF2381ADAE9000ACDE9000A4E48406824
:102E9000C0F381000D900D9820B1012804D00228C4
:102EA00056D103E0494A55E0484A53E04648406855
:102EB00000F48039B9F5803F2FD14348C06A00F053
:102EC00080400B900B9808B9404900E040493E48CB
:102ED000C06A00F480300A900A98B0F5803F12D1A1
:102EE0003948C06AC0F30310401C08903648C06AD5
:102EF000C0F30320871C112F00D114270898B1FBC1
:102F0000F0F000FB07F13048C06A00F00F00401CF1
:102F100009900998B1FBF0F100E02E492A48406879
:102F2000C0F383432848406800F0005008B143F0E4
:102F300010030F2B01D29B1C00E05B1C01FB03F272
:102F40000F2B04D101EB4100400000EB510201E0E6
:102F50001E4A00BF00BF1C484068C0F3031504A808
:102F6000465D22FA06F418484068C0F3022502A81C
:102F7000465D24FA06FC14484068C0F3C2251DF8DB
:102F8000056024FA06F80E9830B1012806D0022810
:102F900006D003280AD106E00C9208E00C9406E063
:102FA000CDF830C003E0CDF8308000E000BF00BFB6
:102FB0000C980FB0BDE8F08F00000000000000008A
:102FC00001020304060708090010024000127A00FB
:102FD000006CDC0200093D00064A02EB9011096812
:102FE00000F01F0301229A401143024B03EB9012A1
:102FF0001160704700100240064A02EB9011096808
:1030000000F01F0301229A409143024B03EB901200
:103010001160704700100240064A02EB90110968E7
:1030200000F01F0301229A401143024B03EB901260
:10303000116070470010024030B50246074800EBAF
:1030400081031446002004E01D682560001D241D36
:103050001B1D1028F8D3012030BD000000FC010822
:1030600001490A680260704718FC010800210170DC
:1030700041708170C1707047002101704170817092
:10308000C170017141718171C171017241728172AE
:10309000C172017341738173C17370472DE9F843A5
:1030A00004468846FFF776FC3C20FFF70DFC0E48EF
:1030B000FFF71AFC0020009025460B4E002707E082
:1030C00030462968FFF778FC00903F1D2D1D361D06
:1030D000102FF5D3414604481830FFF76DFC0090DF
:1030E000FFF7F8FBBDE8F88300FC010810B50024E9
:1030F0007548007810B9FF2073490870724840780D
:1031000010B9FF20704948706F48807810B9FF20CF
:103110006D4988706C48C07810B9FF206A49C87042
:1031200069480078FF281AD067480078B42816DA72
:10313000654800786449497B88420BDD6248007825
:103140006149097B884205DA5F4800795E49897BDD
:10315000884204DB01205D490870012461E05A487F
:103160004078FF281AD058484078B42816DA5648D4
:1031700040785549497B88420BDD53484078524995
:10318000097B884205DA504840794F49897B88425B
:1031900004DB01204D490870012442E04A48807850
:1031A000FF281AD048488078B42816DA4648807834
:1031B0004549497B88420BDD434880784249097B79
:1031C000884205DA404880793F49897B884204DBA0
:1031D00001203E490870012423E03B48C078FF28C5
:1031E0001AD03948C078B42816DA3748C07836493A
:1031F000497B88420BDD3448C0783349097B8842DB
:1032000005DA3148C0793049897B884204DB0120E6
:103210002E490870012404E000202C4908702C4934
:1032200008702A480078012809D12948007830B967
:10323000FFF79CFD27490860012025490870FFF72A
:1032400095FD24490968401A46F2A811884237D2F0
:1032500074B12148007858B92048007840B900F08E
:1032600057F801201C490870FFF780FD1C490860D1
:1032700019480078A0B1FFF779FD19490968401A8B
:103280001849096888420BD300F032F8002012492F
:103290000870012011490870FFF768FD12490860A5
:1032A0000E48007870B1FFF761FD0F490968401AB8
:1032B0000E490968884205D300200849087001E0DA
:1032C00000F016F810BD0000B803002085000020B3
:1032D0008400002098000020860000208700002045
:1032E000900000208C000020940000208800002026
:1032F00010B54FF480410548FFF7E0FB012803D1EA
:1033000081030248FFF778FB10BD00000010014068
:1033100010B54FF480410548FFF7D0FB20B94FF4BA
:1033200080410248FFF76AFB10BD00000010014019
:1033300030B503460C46002107E0585C655CA842A6
:1033400001D0002030BD481CC1B29142F5DB012004
:10335000F8E7000000200021374A126842F480326A
:10336000354B1A6000BF401C334A126802F400312A
:1033700019B94FF6FF729042F5D12F4A126802F444
:1033800000320AB900BFFEE72C4A126822F0070299
:10339000D21C2A4B1A60284A5268274B5A601A4698
:1033A00052685A601A46526842F480625A601A465D
:1033B0005268234B1A40204B5A601A465268214BE0
:1033C0001A431D4B5A601A46D26A1F4B1A401A4BB9
:1033D000DA621A46D26A1D4B1A43174BDA621A4652
:1033E000126842F080621A6000BF134A126802F04D
:1033F0000062002AF9D0104A126842F080720E4B27
:103400001A6000BF0C4A126802F00072002AF9D05C
:10341000094A526822F00302074B5A601A46526862
:1034200042F002025A6000BF034A526802F00802EA
:10343000002AF9D07047000000100240002002402E
:10344000FFFFC3DF0000352000F0FEBF19080100B8
:1034500010B5FFF77FFF10BD10B5124800684FF49C
:103460007A71B0FBF1F4601EB0F1807F01D30120CE
:103470000FE0601E4FF0E02148610F214FF0FF3058
:10348000FDF7F2FA00204FF0E02188610720086183
:10349000002008B100BFFEE70021481EFDF7E4FA56
:1034A00010BD00009C0000200FB4F0B593B004469E
:1034B0009DF8640010B9FF208DF864009DF8650048
:1034C00010B9FF208DF865009DF8660010B9FF2047
:1034D0008DF866009DF8670010B9FF208DF8670031
:1034E000022C7CD1FFF742FCFE490968401AC8282B
:1034F000C1F09F821422FCA10EA8FCF745FE0EA885
:10350000FCF766FEC5B22A460EA9FC48FDF70FFB84
:1035100000200A900B900C900D909DF873000228EB
:1035200003D101208DF8310012E09DF873000128CD
:1035300003D100208DF831000AE09DF873000328C4
:1035400003D102208DF8310002E001208DF8310016
:103550009DF8300020F00100401C8DF830009DF8EF
:10356000310080B99DF864008DF82C009DF865004D
:103570008DF82D009DF866008DF82E009DF86700EF
:103580008DF82F00D2E09DF83100012866D19DF81A
:103590006400FF2811D09DF8640000EE100AB8EE18
:1035A000400ADFEDD70A20EE200ABCEEC00A10EE7A
:1035B000100AC0B28DF82C0002E0FF208DF82C001C
:1035C0009DF86500FF2813D09DF8650000EE100AF5
:1035D000B8EE400ADFEDCA0A20EE200A00E0E6E17C
:1035E000BCEEC00A10EE100AC0B28DF82D0002E049
:1035F000FF208DF82D009DF86600FF2811D09DF862
:10360000660000EE100AB8EE400ADFEDBD0A20EEBB
:10361000200ABCEEC00A10EE100AC0B28DF82E00CF
:1036200002E0FF208DF82E009DF86700FF2811D0E2
:103630009DF8670000EE100AB8EE400ADFEDB00A10
:1036400020EE200ABCEEC00A10EE100AC0B28DF8BF
:103650002F006BE0FF208DF82F0067E09DF8310010
:10366000022863D19DF86400FF2811D09DF8640002
:1036700000EE100AB8EE400ADFEDA20A20EE200AA2
:10368000BCEEC00A10EE100AC0B28DF82C0002E0A9
:10369000FF208DF82C009DF86500FF2811D09DF8C3
:1036A000650000EE100AB8EE400ADFED960A20EE43
:1036B000200ABCEEC00A10EE100AC0B28DF82D0030
:1036C00002E0FF208DF82D009DF86600FF2811D044
:1036D0009DF8660000EE100AB8EE400ADFED890A98
:1036E00020EE200ABCEEC00A10EE100AC0B28DF81F
:1036F0002E0002E0FF208DF82E009DF86700FF28C5
:1037000011D09DF8670000EE100AB8EE400ADFED18
:103710007D0A20EE200ABCEEC00A10EE100AC0B2EC
:103720008DF82F0002E0FF208DF82F009DF8640037
:10373000FF280BD09DF86500FF2807D09DF8660094
:10374000FF2803D09DF86700FF2805D19DF83000C1
:1037500020F001008DF830009DF86C0016280BDD7C
:103760009DF86D00162807DD9DF86E00162803DD14
:103770009DF86F00162806DC9DF8300020F0080048
:1037800008308DF830009DF86400FF2819D09DF8AE
:1037900064009DF87110884205DD9DF864009DF875
:1037A000701088420DDB9DF8300020F020002030A2
:1037B0008DF830009DF82B0020F00100401C8DF8A2
:1037C0002B009DF86500FF2819D09DF865009DF835
:1037D0007110884205DD9DF865009DF870108842E3
:1037E0000DDB9DF8300020F0200020308DF83000F7
:1037F0009DF82B0020F00400001D8DF82B009DF893
:103800006600FF2819D09DF866009DF87110884267
:1038100005DD9DF866009DF8701088420DDB9DF86F
:10382000300020F0200020308DF830009DF82B0073
:1038300020F0100010308DF82B009DF86700FF2855
:1038400019D09DF867009DF87110884205DD9DF83C
:1038500067009DF8701088420DDB9DF8300020F065
:10386000200020308DF830009DF82B0020F0400023
:1038700040308DF82B009DF868009DF8721088424A
:103880000DDB9DF8300020F0200020308DF8300056
:103890009DF82B0020F00100401C8DF82B009DF8B6
:1038A00069009DF8721088420DDB9DF8300020F011
:1038B000200020308DF830009DF82B0020F004000F
:1038C000001D8DF82B009DF86A009DF8721088424B
:1038D00021DB9DF8300020F0200020308DF83000F2
:1038E00012E000006000002024537461727453657C
:1038F0006E6443414E4644230000000000380140FE
:103900007B81B03F7B81303F9DF82B0020F0100081
:1039100010308DF82B009DF86B009DF872108842D6
:103920000DDB9DF8300020F0200020308DF83000B5
:103930009DF82B0020F0400040308DF82B00012036
:10394000FE4981F84B0081F84C00002081F84D00C1
:10395000087248724FF46870086010208872F84846
:1039600000788DF82A00F6480078401CF449087069
:1039700010220AA9F1480B30FCF706FCEF48FDF7CE
:10398000C1FFEE48FDF71AF8FFF7F0F9ED490860BE
:103990001422EDA105A8FCF7F7FB05A8FCF718FC1D
:1039A000C5B22A4605A9ED48FDF7C1F8FEE3012C92
:1039B00077D1FFF7DBF9EA490968401AC828F5D33F
:1039C0001822E8A10DA8FCF7DFFB0DA8FCF700FC0E
:1039D000C5B22A460DA9E148FDF7A9F800200B90D1
:1039E0000C909DF87300022803D109208DF82D005A
:1039F00011E09DF87300012802D18DF82D000AE036
:103A00009DF87300032803D111208DF82D0002E0EA
:103A100011208DF82D009DF82D00012830D19DF842
:103A20006400FF2804D09DF864008DF82E0002E0A9
:103A3000FF208DF82E009DF86500FF2804D09DF82A
:103A400065008DF82F0002E0FF208DF82F009DF813
:103A50006600FF2804D09DF866008DF8300002E073
:103A6000FF208DF830009DF86700FF2804D09DF8F6
:103A700067008DF83100B1E0FF208DF83100ADE036
:103A80009DF82D00092841D19DF86400FF2809D038
:103A90009DF86400052190FBF1F0C0B28DF82E0076
:103AA00003E0F0E1FF208DF82E009DF86500FF286F
:103AB00008D09DF86500052190FBF1F0C0B28DF8AB
:103AC0002F0002E0FF208DF82F009DF86600FF28F0
:103AD00008D09DF86600052190FBF1F0C0B28DF88A
:103AE000300002E0FF208DF830009DF86700FF28CD
:103AF00008D09DF86700052190FBF1F0C0B28DF869
:103B000031006BE0FF208DF8310067E09DF82D005B
:103B1000112863D19DF86400FF2811D09DF864003E
:103B200000EE100AB8EE400A5FED8A0A20EE200A85
:103B3000BCEEC00A10EE100AC0B28DF82E0002E0F2
:103B4000FF208DF82E009DF86500FF2811D09DF80C
:103B5000650000EE100AB8EE400A5FED960A20EE0E
:103B6000200ABCEEC00A10EE100AC0B28DF82F0079
:103B700002E0FF208DF82F009DF86600FF2811D08D
:103B80009DF8660000EE100AB8EE400A5FEDA30A49
:103B900020EE200ABCEEC00A10EE100AC0B28DF86A
:103BA000300002E0FF208DF830009DF86700FF280C
:103BB00011D09DF8670000EE100AB8EE400A5FEDE4
:103BC000AF0A20EE200ABCEEC00A10EE100AC0B206
:103BD0008DF8310002E0FF208DF831009DF86C0077
:103BE00016280DDC9DF82C0020F00400001D8DF837
:103BF0002C009DF82C0020F0100010308DF82C00C7
:103C00009DF86D0016280DDC9DF82C0020F00400B6
:103C1000001D8DF82C009DF82C0020F02000203095
:103C20008DF82C009DF86E0016280DDC9DF82C00F8
:103C300020F00400001D8DF82C009DF82C0020F0D1
:103C4000400040308DF82C009DF86F0016280DDCE8
:103C50009DF82C0020F00400001D8DF82C009DF82C
:103C60002C0020F0800080308DF82C009DF864003E
:103C7000FF2819D09DF864009DF87110884205DD79
:103C80009DF864009DF8701088420DDB9DF82C00B3
:103C900020F00400001D8DF82C009DF82C0020F071
:103CA000100010308DF82C009DF86500FF2819D009
:103CB0009DF865009DF87110884205DD9DF865004E
:103CC0009DF8701088420DDB9DF82C0020F0040058
:103CD000001D8DF82C009DF82C0020F020002030D5
:103CE0008DF82C009DF86600FF2819D09DF866001D
:103CF0009DF87110884205DD9DF866009DF87010F2
:103D000088420DDB9DF82C0020F00400001D8DF88A
:103D10002C009DF82C0020F0400040308DF82C0045
:103D20009DF86700FF283BD09DF867009DF8711053
:103D3000884227DD9DF8670020E00000180300207E
:103D400064000020600000202446696E6973685397
:103D5000656E6443414E4644230000000038014034
:103D60006800002024537461727453656E6443418B
:103D70004E436C6173736963230000009DF87010FB
:103D800088420DDB9DF82C0020F00400001D8DF80A
:103D90002C009DF82C0020F0800080308DF82C0045
:103DA0009DF868009DF87210884206DB9DF82C0093
:103DB00020F0100010308DF82C009DF869009DF85F
:103DC0007210884206DB9DF82C0020F02000203085
:103DD0008DF82C009DF86A009DF87210884206DB71
:103DE0009DF82C0020F0400040308DF82C009DF80C
:103DF0006B009DF87210884206DB9DF82C0020F0C5
:103E0000800080308DF82C000020FB4981F84B00A9
:103E100081F84C0081F84D000872487240F29350CE
:103E20000860062088729DF86400FF280BD09DF87A
:103E30006500FF2807D09DF86600FF2803D09DF895
:103E40006700FF2802D100208DF82D00EA480B30D2
:103E50000B990160BDF8301081800B38FCF7AEFD86
:103E6000FEF784FFE54908601822E5A105A8FCF7E4
:103E70008BF905A8FCF7ACF9C5B22A4605A9E648B6
:103E8000FCF755FE92E5032C7ED1FEF76FFFE34968
:103E90000968401A47F23051884202D90020E049AF
:103EA00008709DF86400FF2811D09DF8640000EEB2
:103EB000100AB8EE400ADFEDDB0A20EE200ABDEE64
:103EC000C00A10EE100AC0B28DF8470002E0FF20D1
:103ED0008DF847009DF86500FF2811D09DF865001A
:103EE00000EE100AB8EE400ADFEDCE0A20EE200AFE
:103EF000BDEEC00A10EE100AC0B28DF8480002E014
:103F0000FF208DF848009DF86600FF2811D09DF82D
:103F1000660000EE100AB8EE400ADFEDC20A20EE9D
:103F2000200ABDEEC00A10EE100AC0B28DF849009A
:103F300002E0FF208DF849009DF86700FF2811D0AE
:103F40009DF8670000EE100AB8EE400ADFEDB50AF2
:103F500020EE200ABDEEC00A10EE100AC0B28DF8A5
:103F60004A0002E0FF208DF84A00FE208DF84B0049
:103F70009DF86400FF280DD09DF86500FF2809D04A
:103F80009DF86600FF2800E066E103D09DF8670019
:103F9000FF280DD19DF8450020F0080008308DF86D
:103FA00045009DF8440020F00200801C8DF844007C
:103FB0009DF86400FF2820D09DF864009DF87110E2
:103FC000884205DD9DF864009DF87010884214DB7E
:103FD0009DF8450020F0080008308DF845009DF858
:103FE000450020F00200801C8DF845009DF8460039
:103FF00020F0080008308DF846009DF86500FF2885
:1040000020D09DF865009DF87110884205DD9DF86F
:1040100065009DF87010884214DB9DF8450020F083
:10402000080008308DF845009DF8450020F002009A
:10403000801C8DF845009DF8460020F010001030DF
:104040008DF846009DF86600FF2820D09DF8660098
:104050009DF87110884205DD9DF866009DF870108E
:10406000884214DB9DF8450020F0080008308DF8E8
:1040700045009DF8450020F00200801C8DF84500A9
:104080009DF8460020F0200020308DF846009DF875
:104090006700FF2820D09DF867009DF871108842C6
:1040A00005DD9DF867009DF87010884214DB9DF8CF
:1040B000450020F0080008308DF845009DF84500C7
:1040C00020F00200801C8DF845009DF8460020F08D
:1040D000400040308DF84600FEF748FE524909681E
:1040E000401AB0F57A7F38D3142250A10CA8FCF7FF
:1040F0004BF80CA8FCF76CF8C5B22A460CA9464848
:10410000FCF715FD00203C4981F84B0081F84C007C
:1041100081F84D000872487240F2FF2008600820C4
:10412000887201F10B0011990160129941600B38FE
:10413000FCF744FCFEF71AFE3B490860142240A13C
:1041400007A8FCF721F807A8FCF742F8C5B22A46F1
:1041500007A93148FCF7EBFC00BFFEF707FE3D491D
:104160000968401AB0F5B47F44D314222FA10CA8DB
:10417000FCF70AF80CA8FCF72BF8C5B22A460CA9E4
:104180002548FCF7D4FC00201B4981F84B0081F83E
:104190004C0081F84D00087248724FF4816008604D
:1041A00008208872FD20C872142100E06FE31248D5
:1041B0000173042141730F2181733821C173CF2111
:1041C0000174D721417423218174FCF7F7FBFEF7BA
:1041D000CDFD20490860142219A107A8FBF7D4FFE0
:1041E00007A8FBF7F5FFC5B22A4607A90A48FCF75E
:1041F0009EFC00BF4BE30000180300206800002075
:104200002446696E69736853656E6443414E436C1E
:104210006173736963230000003801404800002087
:10422000540000206F8130406C00002024537461E2
:10423000727453656E6443414E4D65726323000092
:104240002446696E69736853656E6443414E4D65DB
:104250007263230070000020042C71D1FEF786FDEC
:10426000FE490968401A47F23051884202D90020BD
:10427000FB4908700020119012900F9010909DF84B
:104280006400FF2811D09DF8640000EE100AB8EE1B
:10429000400A5FED1C0A20EE200ABDEEC00A10EEB7
:1042A000100AC0B28DF8470002E0FF208DF84700E9
:1042B0009DF86500FF2811D09DF8650000EE100AFA
:1042C000B8EE400A5FED290A20EE200ABDEEC00AD2
:1042D00010EE100AC0B28DF8460002E0FF208DF803
:1042E00046009DF86600FF2811D09DF8660000EE9C
:1042F000100AB8EE400A5FED350A20EE200ABDEE46
:10430000C00A10EE100AC0B28DF8450002E0FF208E
:104310008DF845009DF86700FF2812D09DF86700D2
:1043200000EE100AB8EE400A5FED420A20EE200AC5
:10433000BDEEC00A10EE100AC0B28DF8440003E0D2
:10434000A6E2FF208DF844009DF86400FF280BD002
:104350009DF86500FF2807D09DF86600FF2803D070
:104360009DF86700FF280DD19DF8480020F010004F
:1043700010308DF848009DF84A0020F010008DF8AC
:104380004A000CE09DF8480020F010008DF848002D
:104390009DF84A0020F0100010308DF84A009DF87A
:1043A0006400FF2825D09DF864009DF871108842B4
:1043B00005DD9DF864009DF87010884219DB9DF8BA
:1043C000490020F00100401C8DF849009DF847008D
:1043D000302807DA9DF8490020F0C00080308DF8C1
:1043E000490006E09DF8490020F0C00040308DF8FB
:1043F00049009DF86500FF2825D09DF865009DF8CF
:104400007110884205DD9DF865009DF870108842A6
:1044100019DB9DF8490020F00100401C8DF849008F
:104420009DF84600302807DA9DF8490020F030005A
:1044300020308DF8490006E09DF8490020F030005A
:1044400010308DF849009DF86600FF2825D09DF8B2
:1044500066009DF87110884205DD9DF866009DF8A4
:104460007010884219DB9DF8490020F00100401CC3
:104470008DF849009DF84500302807DA9DF849007D
:1044800020F00C0008308DF8490006E09DF8490046
:1044900020F00C00001D8DF849009DF86700FF28F2
:1044A00025D09DF867009DF87110884205DD9DF8C4
:1044B00067009DF87010884219DB9DF8490020F0D4
:1044C0000100401C8DF849009DF84400302807DAAF
:1044D0009DF84A0020F00300801C8DF84A0006E099
:1044E0009DF84A0020F00300401C8DF84A009DF81A
:1044F0006C0016280DDC9DF8490020F00100401CDE
:104500008DF849009DF8490020F0C00080308DF8FA
:1045100049009DF86D0016280DDC9DF8490020F03B
:104520000100401C8DF849009DF8490020F0300042
:1045300020308DF849009DF86E0016280DDC9DF89E
:10454000490020F00100401C8DF849009DF8490009
:1045500020F00C0008308DF849009DF86F001628F7
:104560000DDC9DF8490020F00100401C8DF8490049
:104570009DF84A0020F00300801C8DF84A009DF849
:104580006800FF2806D09DF868003230C0B28DF870
:104590003C0002E0FF208DF83C009DF86900FF28F8
:1045A00006D09DF869003230C0B28DF83D0002E0BF
:1045B000FF208DF83D009DF86A00FF2806D09DF889
:1045C0006A003230C0B28DF83E0002E0FF208DF864
:1045D0003E009DF86A00FF2806D09DF86B0032303F
:1045E000C0B28DF83F0002E0FF208DF83F005B2055
:1045F0008DF840005C208DF8410000208DF84200CD
:104600008DF843009DF868009DF8711088420DDC1C
:104610009DF8490020F00100401C8DF849009DF8EC
:10462000490020F0C00040308DF849009DF8680036
:104630009DF8711088420DDC9DF8490020F00100C2
:10464000401C8DF849009DF8490020F030001030E2
:104650008DF849009DF8680004E000004800002043
:10466000540000209DF8711088420DDC9DF849002F
:1046700020F00100401C8DF849009DF8490020F011
:104680000C00001D8DF849009DF868009DF8711020
:1046900088420DDC9DF8490020F00100401C8DF897
:1046A00049009DF84A0020F00300401C8DF84A00A4
:1046B000E2480078F0BBFEF759FBE1490968401A6F
:1046C00096283BD31422AFF29C410AA8FBF75CFD6D
:1046D0000AA8FBF77DFDC5B22A460AA9D948FCF70E
:1046E00026FA0020D84981F84B0081F84C0081F867
:1046F0004D000872487240F2094008600820887234
:1047000001F10B0011990160129941600B38FCF71F
:1047100055F90120C94908701422AFF2DC4105A8FF
:10472000FBF732FD05A8FBF753FDC5B22A4605A9E4
:10473000C44800E002E0FCF7FAF900BFBF48007887
:1047400001285FD1FEF712FBC0490968401AB0F595
:10475000967F57D31422AFF22C510AA8FBF714FD11
:104760000AA8FBF735FDC6B232460AA9B548FCF7E0
:10477000DEF940F20C40B44908600220887200253E
:104780009DF848000121B1EBD01F04D09DF84900ED
:1047900000F0010000B10125AD48007840EA0510A5
:1047A000C1B2A948017335B9AA48A9490978405C42
:1047B000A549C87205E0A848A5490978405CA24906
:1047C000C872A148FCF7FAF8A1480078401CA0493B
:1047D0000870084600780F2801DD002008700220CC
:1047E000964908701422AFF2A85105A8FBF7CCFC3B
:1047F00005A8FBF7EDFCC6B2324605A99148FCF7C7
:1048000096F900BFFEF7B2FA94490968401AB0F56C
:104810007A7F3CD31422AFF2EC510AA8FBF7B4FC28
:104820000AA8FBF7D5FCC5B22A460AA98548FCF7B9
:104830007EF940F20740844908600820887201F13F
:104840000B000F990160109941600B38FCF7B6F826
:1048500000207A490870FEF789FA7949086008460D
:1048600000687A490860764800687C49086014222C
:10487000AFF2346105A8FBF787FC05A8FBF7A8FC9D
:10488000C5B22A4605A96F48FCF751F900BFD0E030
:10489000062C01D0072C7DD100259DF86410C1B1F4
:1048A0009DF86410B42914DC9DF864106C4A1268F9
:1048B000881A002801DB014600E04142012908DB9B
:1048C00001259DF86400664908609DF8640065490B
:1048D00008709DF86510C1B19DF86510B42914DC0D
:1048E0009DF86510604A1268881A002801DB0146AD
:1048F00000E04142012908DB01259DF865005A4985
:1049000008609DF86500574948709DF86610C1B170
:104910009DF86610B42914DC9DF86610534A12689D
:10492000881A002801DB014600E04142012908DB2A
:1049300001259DF866004D4908609DF866004949CB
:1049400088709DF86710C1B19DF86710B42914DC18
:104950009DF86710464A1268881A002801DB014654
:1049600000E04142012908DB01259DF8670040492C
:1049700008609DF867003B49C870012D1ED1402199
:1049800003A8FBF71AFC3A48006838490968CDE9E2
:10499000001000E04DE034480368314835A102685A
:1049A00003A8FCF751FD03A8FBF712FCC6B2324680
:1049B00003A93648FCF7BBF8002500BF344E367813
:1049C0009DF86470F31B002B01DB1E4600E05E4285
:1049D000052E23DA2E4E76789DF86570F21B002A9C
:1049E00001DB164600E05642052E17DA284EB6784F
:1049F0009DF86670F11B002901DB0E4600E04E4277
:104A0000052E0BDA224EF6789DF86770F01B002811
:104A100001DB064600E04642052E09DB1D48016821
:104A200019A8FEF73BFB102219A91948FBF7ACFBAC
:104A300000BF13B0F0BC5DF814FB0000750000204F
:104A40007800002000380140180300207C0000207E
:104A5000740000205C5700086C570008800000209C
:104A6000B400002014000020C8000020DC0000205A
:104A7000F0000020246943415230352C253278253E
:104A80003278253278253278230000000044004037
:104A9000A40000202400002010B50446FF20A249F5
:104AA000087048708870C87000200871487188715B
:104AB000C8711E20087248728872C872022C22D1F6
:104AC0009A48FCF751FF00231A4640F2FF714FF459
:104AD0007870FDF791F90123002240F2FF71A020C8
:104AE000FDF78AF90223002240F2FF7140F22520EF
:104AF000FDF782F90323002240F2FF7140F2D44017
:104B0000FDF77AF90EE1012C4BD18848FCF72CFF18
:104B100000231A4640F2FF7140F21630FDF76CF99F
:104B20000123002240F2FF7140F25310FDF764F9B7
:104B30000223002240F2FF7140F24350FDF75CF97E
:104B40000323002240F2FF7140F20C50FDF754F9AC
:104B50000423002240F2FF714FF48970FDF74CF9F5
:104B60000523002240F2FF714FF48860FDF744F9FD
:104B70000623002240F2FF7140F2F140FDF73CF9BC
:104B80000723002240F2FF7140F21630FDF734F99E
:104B90000823002240F2FF7140F21B50FDF72CF970
:104BA000C0E0032C12D16148FCF7DEFE00231A4658
:104BB00040F2FF710220FDF71FF90123002240F2AD
:104BC000FF7140F29F10FDF717F9ABE0042C12D1F2
:104BD0005648FCF7C9FE00231A4640F2FF71202018
:104BE000FDF70AF90123002240F2FF7140F29F1005
:104BF000FDF702F996E0052C12D14C48FCF7B4FE03
:104C000000231A4640F2FF710220FDF7F5F8012358
:104C1000002240F2FF714FF42170FDF7EDF881E0C2
:104C2000062C2AD14148FCF79FFE00231A4640F289
:104C3000FF714FF47870FDF7DFF80123002240F296
:104C4000FF71A020FDF7D8F80223002240F2FF7187
:104C500040F22520FDF7D0F80323002240F2FF7137
:104C600040F2D440FDF7C8F80423002240F2FF715F
:104C70004FF46870FDF7C0F854E0072C52D12B4870
:104C8000FCF772FE00231A4640F2FF7140F2163024
:104C9000FDF7B2F80123002240F2FF7140F25310F9
:104CA000FDF7AAF80223002240F2FF7140F24350C0
:104CB000FDF7A2F80323002240F2FF7140F20C50EE
:104CC000FDF79AF80423002240F2FF714FF4897037
:104CD000FDF792F80523002240F2FF714FF488603F
:104CE000FDF78AF80623002240F2FF7140F2F140FE
:104CF000FDF782F80723002240F2FF7140F21630E0
:104D0000FDF77AF80823002240F2FF7140F21B50B1
:104D1000FDF772F80923002240F2FF7140F2935030
:104D2000FDF76AF810BD0000B803002020A10700BD
:104D300010B504464FF4C060FEF74EF940F2026031
:104D4000FEF74AF940F20E60FEF746F94FF4806331
:104D5000032248212148FDF753FE4FF4007303223C
:104D600018211E48FDF74CFE1D4800F01FFC21468F
:104D70001B4800F0BFFB0021194800F0B6FC0021E1
:104D8000174800F0E3FC0021154800F0CFFC144860
:104D900000F054FC0821124800F0D0FC0421104817
:104DA00000F0ABFC00210E4800F0ECFB02220021D9
:104DB0002520FDF7E7FF40F20531094800F05FFCD0
:104DC00042F20401064800F05AFC054800F09DFC40
:104DD0003221034800F0A0FC10BD00000008014093
:104DE0000038014010B504464FF4C060FEF7F4F8F7
:104DF00040F20260FEF7F0F840F21170FEF7ECF8B6
:104E00000823032204212148FDF7FAFD042303228D
:104E100018211E48FDF7F4FD1D4800F0C7FB214690
:104E20001B4800F067FB0021194800F05EFC0021E0
:104E3000174800F08BFC0021154800F077FC14485F
:104E400000F0FCFB0821124800F078FC0421104817
:104E500000F053FC00210E4800F094FB01221146A3
:104E60002620FDF78FFF40F20531094800F007FCCE
:104E700042F20401064800F002FC054800F045FC3F
:104E80003221034800F048FC10BD0000000801403A
:104E90000044004010B504464FF4C060FEF79CF893
:104EA00040F20360FEF798F840F21270FEF794F8B3
:104EB0004FF40063032204212148FDF7A1FD4FF4C4
:104EC0008063032218211E48FDF79AFD1D4800F05B
:104ED0006DFB21461B4800F00DFB0021194800F036
:104EE00004FC0021174800F031FC0021154800F0B7
:104EF0001DFC144800F0A2FB0821124800F01EFC23
:104F00000421104800F0F9FB00210E4800F03AFBA4
:104F1000012200212720FDF735FF40F20531094825
:104F200000F0ADFB42F20401064800F0A8FB054882
:104F300000F0EBFB3221034800F0EEFB10BD000057
:104F4000000C01400048004070B592B006460C4687
:104F5000402102A8FBF731F9314602A8FBF73FF9DF
:104F6000002002A90855062C72D00C2C71D1FE48E5
:104F70009DF8091001700020FB49487008469DF813
:104F80000A1081700021C1709DF80B100171002181
:104F900041719DF80C1081710021C171BDF80D1097
:104FA000018100218172BDF80F10A0F80B100021C3
:104FB0004173BDF81110A0F811100021C174012532
:104FC00012E00020019002A8425DE8A101A8FCF7D0
:104FD0003BFA1022002101A8FBF70AF9E54909680C
:104FE0000844E44908606D1CE01EA842E9DCE14881
:104FF000E1A10268E248FCF727FAE248E049498863
:1050000001800020DF498870DA490860D648FBF744
:1050100027F9002870D110220021D3480830FBF76F
:10502000E7F8D949486010220021CF480B30FBF740
:10503000DFF82838D449C86010220021CA48801CF3
:10504000FBF7D6F800F00400042803D10A2002E0A0
:1050500015E233E22020CC4908610846406840B39D
:1050600008460079C9490870C7480079C8490870DE
:10507000C548007BC5490871C348007C0872C54912
:105080000978C24A1278881A002801DB014600E03C
:105090004142052917DBBD49097BA1B1BE48016822
:1050A000BA48FDF7FBFF1022B849BA48FBF76CF885
:1050B00009E0B548406830B9B3480078B449087091
:1050C000FF20B2490870B04A5268002A24D0AE4A84
:1050D0001268AD4B5B68D11A002901DB0A4600E07B
:1050E0004A42012A0CDAA84A9268A74BDB68D01A18
:1050F000002802DB024601E00FE04242012A0BDBFE
:10510000A1484068A04908600846C06888602246F7
:1051100002A9A248FBF70BFDB0E19348FBF7A0F80A
:1051200001287FD1102200218F480830FBF760F85A
:105130009B494860102200218B480B30FBF758F840
:1051400028389749C860102200218748801CFBF747
:105150004FF800F00400042801D10A2000E02020CC
:105160008F4908610846406840B30846007987497E
:1051700048708B480079864948708948007B83498C
:1051800048718748007C4872824949787F4A527842
:10519000881A002801DB014600E04142052917DB9F
:1051A0007A49097BA1B17C4801687848FDF776FF10
:1051B000102276497748FAF7E7FF09E07848406817
:1051C00030B97748007872494870FF206F494870BD
:1051D000734A5268002A9FD0714A1268704B5B680C
:1051E000D11A002901DB0A4600E04A42012A0CDA02
:1051F0006B4A92686A4BDB68D01A002802DB0246D1
:1052000001E00FE04242012A86DB654840686449BC
:1052100008600846C0688860224602A95F48FBF71C
:1052200086FC2BE15048FBF71BF802287FD11022A7
:1052300000214D480830FAF7DBFF5A494860102238
:10524000002149480B30FAF7D3FF28385549C86088
:10525000102200214448801CFAF7CAFF00F0040025
:10526000042801D10A2000E020204E4908610846A8
:10527000406840B30846007944498870494800793D
:10528000434988704748007B404988714548007C05
:105290008872404989783D4A9278881A002801DB53
:1052A000014600E04142052917DB3849097BA1B1DD
:1052B000394801683548FDF7F1FE10223349354879
:1052C000FAF762FF09E03748406830B9354800789E
:1052D0002F498870FF202D498870324A5268002A71
:1052E0009FD0304A12682F4B5B68D11A002901DB2E
:1052F0000A4600E04A42012A0BDA2A4A9268294B00
:10530000DB68D01A002801DB024600E04242012A95
:105310000BDB24484068234908600846C068886061
:10532000224602A91D48FBF702FCA7E0FFE70E4852
:10533000FAF796FF03286ED1102200210A480830A0
:10534000FAF756FF184948601022002106480B3032
:10535000FAF74EFF28381449C8601022002102488D
:10536000801CFAF745FF21E0040100202530327847
:105370000000000018000020253034580000000014
:105380001C00002021000020B4000020B8030020F1
:1053900014000020A400002024000020004400404D
:1053A000C8000020DC000020F000002000F0040015
:1053B000042801D10A2000E0202045490861084660
:1053C000406848B3084600794249C87040480079AF
:1053D0004149C8703E48007B3E49C8713C48007C4A
:1053E000C8723E49C9783B4AD278881A002801DB46
:1053F000014600E04142052919DB3649097BB1B17C
:10540000374801683348FDF749FE102231493348D7
:10541000FAF7BAFE0BE031E0FFE72D48406830B9FB
:105420002B4800782C49C870FF202A49C870284AA8
:1054300052681AB3264A1268254B5B68D11A0029B4
:1054400001DB0A4600E04A42012A0BDA204A926850
:105450001F4BDB68D01A002801DB024600E0424205
:10546000012A0BDB1A484068194908600846C068E1
:105470008860224602A91B48FBF759FB24E09DF8EF
:105480000900452814D19DF80C00532810D10020A4
:105490001549086015490860154908600C490860FD
:1054A00011498860114988601149886008498860FD
:1054B000224602A90B48FBF73AFB05E0224602A967
:1054C0000848FBF734FB00BF00BF12B070BD0000FE
:1054D000F0000020B803002014000020A4000020E9
:1054E0002400002000440040B4000020C800002038
:1054F000DC0000202DE9F04704460D460027B846A1
:10550000B94600261D49601A8C421CD006DC1C4896
:10551000204470B1B0F5806F1FD10FE0B0F5806FFF
:1055200016D0B0F56C4F18D10320FDF795FC074657
:1055300014E00220FDF790FC07460FE00220FDF783
:105540008BFC07460AE00220FDF786FC074605E0D3
:105550000220FDF781FC074600E000BF00BF07EB1B
:105560005500B0FBF5F64FF6F07006EA000806F0BD
:105570000F0948EA0900A060BDE8F087004C004030
:1055800000BCFFBF0A460021D0F8801021F4006162
:105590001143C0F88010704701464868C0F3080006
:1055A0007047C1F3080242607047000010B504461E
:1055B0002049601A8C4228D006DC1F48204490B154
:1055C000B0F5806F33D117E0B0F5806F26D0B0F51D
:1055D0006C4F2CD140F20E30FDF71EFD40F20E3024
:1055E000FDF70AFD24E040F21140FDF715FD40F201
:1055F0001140FDF701FD1BE040F21240FDF70CFDEC
:1056000040F21240FDF7F8FC12E040F21340FDF7C3
:1056100003FD40F21340FDF7EFFC09E040F21440B7
:10562000FDF7FAFC40F21440FDF7E6FC00E000BF95
:1056300000BF10BD004C004000BCFFBFC16841F47A
:105640000051C160704710B500EB9112126801F073
:105650001F040123A3409A4300EB91131A6010BD6D
:1056600010B5024602EB9110006801F01F040123FF
:10567000A340184008B1012010BD0020FCE710B580
:1056800000EB9112126801F01F040123A3401A439A
:1056900000EB91131A6010BD10B500EB9152126827
:1056A000C1F304440123A3409A4300EB91531A60D1
:1056B00010BD70B5024600230024C1F389101058B4
:1056C00001F01F060125B54000EA050302EB9150E9
:1056D0000068C1F304460125B54000EA050414B191
:1056E0000BB1012070BD0020FCE7C26822F4C0624B
:1056F000C260C2680A43C26070470A460021C1689E
:1057000021F004011143C1607047D0F8801041F0CE
:105710000101C0F88010704750F8842F02F07F42DA
:10572000026002680A4340F884297047026922F443
:105730004052026102690A43026170470A46002131
:10574000C16821F008011143C1607047C26822F4AA
:105750008052C260C2680A43C26070473D7A5512E7
:105760000E4985C25B1C3374682F7037185F703721
:105770002B6CA0E77E3916514D0A55120C101418E7
:105780002030400000000000000000000100000088
:105790000000000002000000000000000300000004
:1057A00000000000030000000100000004000000F1
:1057B00001000000050000000100000006000000DC
:1057C00001000000060000000200000007000000C9
:1057D00002000000080000000200000009000000B4
:1057E0000200000009000000030000000A000000A1
:1057F000030000000B000000030000000C0000008C
:10580000030000000D000000030000000D00000078
:10581000040000000E000000040000000F00000063
:10582000040000000F000000050000000F00000051
:10583000060000000F00000007000000000000004C
:1058400000000000FFFFFFFF00000000000000005C
:10585000FFFFFFFF0040404040404040404041418A
:105860004141414040404040404040404040404035
:1058700040404040400502020202020202020202CF
:1058800002020202022020202020202020202002CC
:10589000020202020202909090909090101010105C
:1058A00010101010101010101010101010101010F8
:1058B000020202020202888888888888080808088C
:1058C0000808080808080808080808080808080858
:1058D000020202024000000055580008FC5800086F
:1058E00000000020A400000078140008A05900085F
:1058F000A400002024070000881400080000000015
:105900000000000000000000000000000000000097
:105910000000000000000000000000000000000087
:10592000000000000000000000000000FFFFFFFF7B
:105930000000000000000000000000000000000067
:105940000000000000000000000000000000000057
:105950000000000000000000000000000000000047
:105960000000000000000000000000000000000037
:105970000000000000000000000000000000000027
:1059800000000000AA000000140000000000000059
:105990000000000000000000000E270700000000CB
:04000005080001519D
:00000001FF
