:020000040800F2
:10000000C807002065010008190900081109000847
:100010001509000803040008D512000800000000BC
:100020000000000000000000000000004709000878
:100030009D08000800000000450900084909000863
:100040007F0100087F0100087F0100087F01000890
:100050007F0100087F0100087F0100087F01000880
:100060007F010008A10800087F0100087F01000847
:100070007F0100087F0100087F0100087F01000860
:100080007F0100087F0100087F0100087F01000850
:10009000090400087F0100087F0100087F010008B3
:1000A0007F0100087F0100087F0100087F01000830
:1000B000E10900087F0100087F0100087F010008B6
:1000C0007F0100087F0100087F0100087F01000810
:1000D0007F010008230A0008250A0008A51000086F
:1000E0009F0800087F0100087F0100087F010008C9
:1000F0007F0100087F0100087F0100080000000068
:100100007F010008000000007F0100087F01000857
:100110007F0100087F0100087F0100087F010008BF
:100120007F0100087F0100087F0100087F010008AF
:100130007F01000800000000000000007F010008AF
:100140006D0800087F0100087F0100087F0100089A
:10015000DFF80CD000F016F900480047ED29000840
:10016000C80700200648804706480047FEE7FEE72C
:10017000FEE7FEE7FEE7FEE7FEE7FEE7FEE7FEE757
:10018000890900085101000840EA01039B0703D0D8
:1001900009E008C9121F08C0042AFAD203E011F8C6
:1001A000013B00F8013B521EF9D27047D2B201E088
:1001B00000F8012B491EFBD270470022F6E710B56C
:1001C00013460A4604461946FFF7F0FF204610BDC5
:1001D000421C10F8011B0029FBD1801A704703460E
:1001E00011F8012B00F8012B002AF9D118467047AD
:1001F0002DE9F04791460F4680460446002614F844
:10020000015B2DB100F06AF80068405DC007F6D1CF
:100210002B2D02D02D2D18D0641E4A46394620467B
:1002200000F060F827B13968A14201D1C7F8008019
:1002300071054FF002040BD54042002803DD01F0A8
:100240005FF80460A007BDE8F08746F48066E4E745
:100250000028F8DA01F054F804606FF00040F2E78B
:1002600070B5064601F04CF8046805460A220021E4
:100270003046FFF7BDFF2C6070BD2DE9F05F0546ED
:10028000002092469B4688460646814640241BE055
:10029000284641464746224600F095F853465A46BE
:1002A000C01A914110D311461846224600F07CF83E
:1002B0002D1A67EB01084F4622460120002100F06D
:1002C00073F817EB00094E41201EA4F10104DFDC96
:1002D000484631462A464346BDE8F09F00487047ED
:1002E000A45600082DE9F05F8246007800271546E5
:1002F0008B460AF10104B946302801D09DB113E0C4
:1003000014F8010B0127782803D0582801D045B1F3
:100310000AE00DB1102D07D10027102514F8010BAC
:1003200002E0082500E00A250026B0460EE005FBA5
:10033000080005FB06F1012701EB10461FFA80F8C3
:10034000B6F5803F00D3B94614F8010B294600F0FA
:100350004AF80028EBDABBF1000F05D00FB1641E9C
:1003600000E05446CBF80040B9F1000F06D000F091
:10037000C7FF02210160C81EBDE8F09F48EA0640A1
:10038000FAE70000064C074D06E0E06840F0010384
:1003900094E8070098471034AC42F6D3FFF7DCFE30
:1003A000A8560008C8560008202A04DB203A00FAA4
:1003B00002F1002070479140C2F1200320FA03F3BC
:1003C000194390407047202A04DB203A21FA02F0BA
:1003D0000021704721FA02F3D040C2F1200291407F
:1003E0000843194670473A2800D2303820F02002DE
:1003F000412A01D3A2F13700884201D34FF0FF30E8
:10040000704700BFFEE7000010B590B0FC4A002125
:10041000FC4801F0CDFD0120FB490870F848006858
:10042000B0F5787F17D1F648C07B00F05000502817
:1004300005D0F348007C00F00300032807D1012019
:10044000F249087002F0D0FBF1490860BAE10020DF
:10045000EE490870B6E1EA48006840F2531188425C
:1004600011D1E748407B00F01000102807D101208F
:10047000E649087002F0B8FBE5490860A2E10020F7
:10048000E24908709EE1DE48006840F2435188422C
:1004900011D1DB48C07A00F00200022807D1012008
:1004A000DA49087002F0A0FBD94908608AE100200F
:1004B000D649087086E1D248006840F21631884279
:1004C00014D1CF48C07A00F0010038B10120CF49E3
:1004D000087002F089FBCE49086002E00020CB4999
:1004E0000870C748407CCB4908706BE1C44800687D
:1004F000A0280AD1C248417D007D41EA00201E218A
:1005000090FBF1F0C34908705CE1BD480068B0F5AC
:10051000886F04D1BA48407BBE49087052E1B848A0
:100520000068B0F5897F04D1B548407BB9490870AF
:1005300048E1B348006840F2F141884207D1B04930
:10054000087B00EBD0714910B24A11703AE1AC4817
:10055000006840F20C51884210D16420A8490090F4
:100560008A7BC97B42EA0120002340F262624FF499
:10057000806102F02DFBA849086023E1A0480068D3
:1005800040F22521884211D164209D490090CA7B08
:10059000097C42EA0121C1F30B0000234FF43472BD
:1005A000194602F015FB9C4908600BE1944800686D
:1005B000202803D092480068022807D101209349DF
:1005C000087002F011FB92490860FBE08C4800685B
:1005D00040F29F1188420BD18948007B8849C97A33
:1005E00040EA01200A2190FBF1F08A490870E9E015
:1005F00083480068B0F5217F0AD18148017CC07B27
:1006000041EA0020642190FBF1F082490870D9E0B2
:100610007B48006840F21B51884216D17848C07A66
:10062000012802D17D49C8730CE07548C07A0228C0
:1006300002D17A49C87305E07148C07A032801D114
:100640007649C87301F0D4FFBCE06D48006840F201
:10065000D441884219D16A48C07B202803D10120A7
:100660006E49C8730EE06648C07B402803D1022063
:100670006A49C87306E06248C07B602802D1032043
:100680006649C87301F0B4FF9CE05D480068B0F5AE
:10069000687F13D16248007806280FD15848007D42
:1006A00068B95748C07B5D4908705548007C487060
:1006B0005348407C88705248807CC87082E0504823
:1006C000007D01283DD14E48C07B00EE100AB8EEF7
:1006D000400ADFED540A20EE200ABCEEC00A10EEFC
:1006E000100A4E4908704648007C00EE100AB8EE29
:1006F000400ADFED4C0A20EE200ABCEEC00A10EEE4
:10070000100A48703E48407C00EE100AB8EE400ADD
:10071000DFED440A20EE200ABCEEC00A10EE100AFB
:1007200088703748807C00EE100AB8EE400ADFED92
:100730003D0A20EE200ABCEEC00A10EE100AC87076
:1007400040E02F48007D02283CD12D48C07B00EEC0
:10075000100AB8EE400ADFED340A20EE200ABCEEA3
:10076000C00A10EE100A2D4908702548007C00EEE2
:10077000100AB8EE400ADFED2C0A20EE200ABCEE8B
:10078000C00A10EE100A48701D48407C00EE100AA6
:10079000B8EE400ADFED240A20EE200ABCEEC00AC3
:1007A00010EE100A88701648807C00EE100AB8EE31
:1007B000400ADFED1D0A20EE200ABCEEC00A10EE52
:1007C000100AC87014480068002840DB124800680E
:1007D00064283CDC154909780F4A1268881A0028F9
:1007E00001DB014600E04142012933DB0A48007881
:1007F0000E49087040216846FFF7DFFC064817E005
:1008000028020020006400405C000020540000200A
:10081000480000205500002058000020B8030020A8
:1008200028000020F7A5393FF7A5B93F4700002071
:1008300009A10268684600F04FFD6846FFF7C8FC52
:10084000C4B222466946074800F0CBF802E0002017
:100850000549086010B010BD246943415230322C64
:100860002564230000440040580000207047000029
:1008700070B50446FF2500262146074801F07AFCA2
:10088000064600E06D1E3146034801F01FFE0128B8
:1008900001D0002DF6D170BD006400407047704754
:1008A0007047000010B540F2026002F0D3FA40F247
:1008B000036002F0CFFA40F2046002F0CBFA40F29B
:1008C000056002F0C7FA40F2127002F0C3FA40F27B
:1008D000117002F0BFFA4FF48043032210210A483E
:1008E00001F0D6FF4FF48041074801F0CDFF4FF4EF
:1008F000005303221021054801F0CAFF4FF40051B4
:10090000024801F0C1FF10BD00100140000C014081
:1009100000BFFEE700BFFEE77047000010B50028EB
:1009200007DA0A07140E054A00F00F031B1FD45400
:1009300003E00A07130E024A135410BD18ED00E03D
:1009400000E400E07047704710B501F0A3FE0B48CB
:100950000068401C0949086009480068401C0849B3
:10096000086008460068642806D30020086005482F
:100970000068401C0349086010BD000038000020DA
:100980004C0000203C00002010B51248006840F4E4
:100990007000104908601048006840F001000E49DE
:1009A000086000204860C862084600680B4908409B
:1009B000094908604FF47F0088600846006820F409
:1009C0008020086002F082FC00214FF0006002F0FD
:1009D00077F910BD88ED00E000100240FFFFF6EA55
:1009E00070472DE9F04107460D461646002405E004
:1009F000295D384600F006F8601CC4B2B442F7DB4B
:100A0000BDE8F08170B504460D462946204604F045
:100A1000AEFC00BF0721204604F008FD0028F9D0F5
:100A200070BD704710B594B0F849F94804F027FD3F
:100A300080B1F848007840280BD2F54804F092FCC9
:100A4000C1B2F44802780078401CF24B1870F248AA
:100A50008154FEE2F149EE4804F011FD00286FD008
:100A60000120EF490870EB48007802280FD10020E0
:100A7000EC498860EC498860EC498860EC49886002
:100A8000E44908704021E448FFF797FB4FE2E14852
:100A90000078082807D0DF4800780A2803D0DD480E
:100AA00000780F2870D1DC48407869286DD1DA4889
:100AB00080784328FAD1D848C0784128F6D1D64862
:100AC00000795228F2D1D448407930281CD1D2483C
:100AD0008079302818D1402104A8FFF76EFBD54853
:100AE00000684FF41671B0FBF1F42246D2A104A8BD
:100AF00000F0F2FB04A8FFF76BFBC4B2224604A986
:100B0000C348FFF76EFF0EE2C3484079302818D182
:100B1000C1488079322814D1402104A8FFF74DFB49
:100B2000C848C9A1026804A800F0D6FB04A8FFF7D2
:100B30004FFBC4B2224604A9B548FFF752FFF2E1C9
:100B400006E2B5484079302820D1B348807935286D
:100B50001CD1402104A8FFF730FBBE48C078BD4936
:100B60008978CDE90010BB4843780278BAA104A87F
:100B700000F0B2FB04A8FFF72BFBC4B2224604A985
:100B8000A348FFF72EFFCEE1BAE0B3E0A2484079D8
:100B90003028B8D1A04880793628B4D19E48007A50
:100BA000302817D1402104A8FFF707FBB048807B0D
:100BB0000090AF48037B427BAEA104A800F08CFB01
:100BC00004A8FFF705FBC4B2224604A99048FFF72A
:100BD00008FFA8E19048007A31282BD1002012901C
:100BE00013908D48D0F80A00129000208DF84C0028
:100BF00012A8FFF735FB9E494873A34801689C483B
:100C000002F08AF9402102A8FFF7D7FA9848807BC2
:100C100000909748037B427B96A102A800F05CFB02
:100C200002A8FFF7D5FAC4B2224602A97848FFF716
:100C3000D8FE78E17848007A32282BD10020129033
:100C400013907548D0F80A00129000208DF84C00DF
:100C500012A8FFF705FB864908738B480168844892
:100C600002F05AF9402102A8FFF7A7FA8048807BDA
:100C700000907F48037B427B7EA102A800F02CFB02
:100C800002A8FFF7A5FAC4B2224602A96048FFF7FE
:100C9000A8FE48E16048007A33289AD100201290DB
:100CA00013905D48D0F80A00129000208DF84C0097
:100CB00012A8FFF7D5FA6E498873734801686C482B
:100CC00002F02AF9402102A8FFF777FA6848807BF2
:100CD00000906748037B427B66A102A800F0FCFA03
:100CE00002A8FFF775FAC4B2224602A94848FFF7E6
:100CF00078FE18E1402248496448FFF772FE12E18D
:100D0000444800780D2875D143484078692890D12F
:100D10004148807843288CD13F48C078412888D109
:100D20003D480079522884D13B4840793028B0D1E1
:100D3000394880793328ACD100201290139036487E
:100D40008068129000208DF84C004F4802F0C6F8E1
:100D500012A8FFF785FA4C490968884254D040210F
:100D600002A8FFF72AFA12A8FFF77AFA04462346E8
:100D7000454847A1026802A800F0AEFA02A8FFF7B2
:100D800027FAC4B2224602A92148FFF72AFE12A878
:100D9000FFF766FA04462146354802F0BDF812A86E
:100DA000FFF75EFA3849086008460068401C18B929
:100DB00000203B4908708CE03348006840F2E9317C
:100DC000884203D101203649087082E02E4800682D
:100DD00040F2EA31884203D102203149087078E0BC
:100DE0002948006840F2EB31884204D103202C49A5
:100DF00008706EE092E024480068B0F57B7F51D126
:100E000004202749087064E068E00000050305003D
:100E100000440040000000205801002004200B2264
:100E200045000020B4000020C8000020DC000020A5
:100E3000F00000203C000020246943415230302C57
:100E40002564230058000020246943415230322C8D
:100E50002564230014000020246943415230352CBE
:100E60002532782532782532782532782300000023
:100E7000B8030020246943415230362C25327825AE
:100E800032782532782300002400002000480040FA
:100E9000246943415230332C25642D2564230000FE
:100EA000280000206C48006840F2ED31884203D1F0
:100EB00005206A4908700CE06748006840F2EE318E
:100EC000884203D106206549087002E0002063498A
:100ED00008706248007803F01BFD19E0402102A869
:100EE000FFF76BF912A8FFF7BBF9044623465A48EF
:100EF000AFF26401026802A800F0EEF902A8FFF761
:100F000067F9C4B2224602A95548FFF76AFD00BF3F
:100F100012A8FFF7A5F95049086004E040225149A2
:100F20005148FFF75EFD40214E48FFF746F94F4814
:100F300000784F49087000204C49087042F20B219C
:100F4000474804F066FA4B49454804F08BFA80E0C4
:100F50000921434804F05DFA0821414804F059FA98
:100F600007213F4804F055FA06213D4804F051FAA4
:100F700005213B4804F04DFA0421394804F049FAB0
:100F80000321374804F045FA0221354804F041FABC
:100F90000121334804F03DFA0021314804F039FAC8
:100FA00042F210212E4804F034FA42F20C212C486F
:100FB00004F02FFA42F20B21294804F02AFA43F2F6
:100FC0000801274804F025FA4FF44271244804F040
:100FD00049FA2949224804F045FA2849204804F0F2
:100FE00041FA27491E4804F03DFA26491C4804F0FE
:100FF00039FA25491A4804F035FA2449184804F00A
:1010000031FA2349164804F02DFA2249144804F015
:1010100029FA2149124804F025FA2049104804F021
:1010200021FA1F490E4804F01DFA12490C4804F039
:1010300019FA1B490A4804F015FA1949084804F03E
:1010400011FA1749064804F00DFA1549044804F04E
:1010500009FA14B010BD0000240000202800002070
:1010600000440040580100200048004000000020DB
:101070004200002004200B2207030700060306009D
:10108000050305000503030004030400060408002B
:101090000A05090000050300000502000005010023
:1010A00005200C2210B588B06F49704804F0E7F9AC
:1010B00080B16F48007840280BD26C4804F052F998
:1010C000C1B26B4802780078401C694B18706948BF
:1010D0008154C6E06849654804F0D1F900283FD042
:1010E00066A2D2E90013D2E90202CDE90413CDE9E8
:1010F000060204A8FFF76CF8C4B2224604A96348AC
:10110000FFF76FFC012062490870624800780628EA
:1011100004D057480178574803F0FCFD402155485A
:10112000FFF74BF8524800785B490870002050499F
:10113000087042F20B214D4804F06BF94E494B48C0
:1011400004F090F955A30FCB8DE80F006846FFF728
:101150003FF8C4B2224669464C48FFF742FC80E0A3
:101160000921424804F055F90821404804F051F99A
:1011700007213E4804F04DF906213C4804F049F9A6
:1011800005213A4804F045F90421384804F041F9B2
:101190000321364804F03DF90221344804F039F9BE
:1011A0000121324804F035F90021304804F031F9CA
:1011B00042F210212D4804F02CF942F20C212B4868
:1011C00004F027F942F20B21284804F022F943F2F7
:1011D0000801264804F01DF94FF44271234804F039
:1011E00041F93249214804F03DF931491F4804F0E2
:1011F00039F91D491D4804F035F92E491B4804F002
:1012000031F92D49194804F02DF92C49174804F0FB
:1012100029F92B49154804F025F92A49134804F007
:1012200021F92949114804F01DF928490F4804F013
:1012300019F927490D4804F015F90F490B4804F036
:1012400011F92349094804F00DF92149074804F030
:1012500009F91F49054804F005F91D49034804F040
:1012600001F908B010BD000005030500004800406A
:10127000010000209801002004200B222458754C06
:10128000794E676174554152543223000038014051
:1012900046000020280000204300002024456E6402
:1012A0004E67617455415254322300000703070012
:1012B00006030600050303000403040006040800F7
:1012C0000A050900000503000005020000050100F1
:1012D00005200C2200BFFEE70FB4084B10B504A98F
:1012E00002AA039800F020F8044602A9002000F0AA
:1012F0004CFA204610BC5DF814FB00008B17000868
:1013000000487047A000002002E008C8121F08C172
:10131000002AFAD170477047002001E001C1121F76
:10132000002AFBD1704700002DE9FF4F8DB00F461A
:101330000546002606E025280BD0DDE90F12904770
:101340006D1C761C28780028F5D111B03046BDE818
:10135000F08F0024A246A1460122EC4900E004439C
:1013600015F8013F203B02FA03F00842F7D1287834
:101370002A2810D06FF02F022878A0F13001092917
:1013800014D80AEB8A0102EB410144F0020400EB9D
:10139000010A6D1CF0E701CF5FEA000A03D544F4AF
:1013A0000054CAF1000A44F002046D1C28782E286B
:1013B00017D115F8010F44F004042A280ED06FF05D
:1013C0002F022878A0F1300109290AD809EB8901F8
:1013D00002EB410100EB01096D1CF2E757F8049B99
:1013E0006D1C28786C280FD006DC4C2817D0682894
:1013F0000DD06A2814D104E0742810D07A280FD1B7
:101400000DE044F400140AE044F4801401E044F4D4
:1014100040146978814202D104F580146D1C6D1C62
:101420002A786E2A1FD00CDC632A31D004DC002A13
:101430008BD0582A11D1A3E0642A68D0692A0CD134
:1014400065E0732A2ED004DC6F2A73D0702A04D191
:101450009BE0752A6FD0782A6ED01046DDE90F1216
:101460009047761C50E1C4F30250022806D00328AE
:1014700009D0042801CF09D0066045E101CFF1175A
:10148000C0E9006140E101CF06803DE106703BE12B
:1014900017F8040B8DF8000000208DF80100EB46D2
:1014A000012003E057F804BB4FF0FF3061074FF015
:1014B000000102D40DE008F10101884649450FDA28
:1014C0008045F8DB1BF808100029F4D108E008F18A
:1014D000010188468142FADB1BF808100029F6D189
:1014E000DDE90F23AAEB08008146214600F036F91A
:1014F000304400EB080604E0DDE90F121BF8010B95
:101500009047B8F10108F7D221464846F7E00A2192
:10151000C4F302534FF0000B0891022B04D001CF0B
:10152000C117032B09D00AE0FF1D27F00707F7E8D2
:10153000020108E032E01FE020E000B2C117042BF6
:1015400001D140B2C117031E71F1000307DA4FF059
:10155000000CD0EB0C006CEB01012D2302E0230505
:1015600004D52B238DF82430012303E0E30701D0B9
:101570002023F7E7984658E00A2110E010210EE0FA
:1015800010204FF0000B08900CE010214FF0000BE2
:1015900044F004044FF00809089103E008214FF0DB
:1015A000000B0891C4F30253022B04D001CF002199
:1015B000032B06D006E0FF1D27F00707F7E802011E
:1015C00003E080B2042B00D1C0B24FF00008230723
:1015D0002BD5702A07D0DDF820C08CF0100C5CEA07
:1015E0000B0C05D00EE040238DF82430012308E0D9
:1015F00050EA010306D030238DF824308DF82520E1
:1016000002239846DDF820C08CF0080C5CEA0B0C35
:101610000BD150EA010301D1630706D530238DF8C1
:1016200024304FF00108A9F10109582A04D038A24A
:101630000B9208AA0A920BE03AA2F9E75B46089AD5
:10164000FEF71BFE0B9B9B5C0A9A521E0A921370BC
:1016500050EA0102F2D10A98ADEB000000F1200B34
:10166000600702D524F4803401E04FF00109D94528
:1016700002DDA9EB0B0000E0002000EB0B01414470
:101680000890AAEB010AE00306D4DDE90F23214606
:10169000504600F063F806444FF0000908E009A93D
:1016A00011F80900DDE90F12904709F10109761CD4
:1016B000C145F4DBE0030CD5DDE90F23214650469C
:1016C00000F04CF8064404E0DDE90F1230209047AA
:1016D000761C0899481E08900029F5DC08E00A9855
:1016E0000A990078491C0A91DDE90F129047761C8F
:1016F000BBF10001ABF1010BF1DC21465046DDE905
:101700000F2300F019F806446D1C1BE609280100A0
:101710003031323334353637383961626364656667
:101720000000000030313233343536373839414229
:1017300043444546000000002DE9F04104460025E1
:101740001E461746880404D405E039462020B047D9
:101750006D1C641EF9D52846BDE8F0812DE9F041E5
:10176000044600251E469046C80301D5302700E0F8
:101770002027880404D505E041463846B0476D1C53
:10178000641EF9D52846BDE8F0810A68531C0B6039
:10179000107070473EB504464FF6FF700290A07A75
:1017A000022802DC4FF0FF303EBDA07A801E82B2DC
:1017B00004F10D0102A800F039FF20780190208883
:1017C000C0F3072000909DF8000040F0F800009062
:1017D000012201A902A800F029FF0122694602A8FE
:1017E00000F024FFBDF80800E072BDF80800010A0F
:1017F00021730020D8E7000010B58CB004464FF4E8
:10180000C06001F027FB40F2197001F023FB40F2A9
:10181000036001F01FFB4FF48073032248217A48D4
:1018200001F036F84FF4007303221821764801F0D6
:101830002FF801214FF4EA1001F090F809A90020D7
:1018400000F0D2FD03A9022000F0CEFD6F4800F0A9
:10185000FFF86E4800F0E8F800208DF8280001201D
:101860008DF8290000208DF82A008DF82B0001202A
:101870008DF82C008DF82D0000208DF8240048F202
:101880003520844216D17820ADF82E0002208DF844
:1018900025000A208DF8260002208DF82700ADF8DB
:1018A00020008DF81C000A208DF81D0002208DF804
:1018B0001E0070E05648844217D12D20ADF82E004E
:1018C00003208DF825000A208DF8260003208DF8CE
:1018D00027000220ADF820008DF81C000A208DF8AA
:1018E0001D0002208DF81E0055E04A48844216D1A2
:1018F0002820ADF82E0002208DF825000A208DF852
:10190000260002208DF82700ADF820008DF81C007D
:101910000A208DF81D0002208DF81E003BE03E4895
:10192000844218D12020ADF82E0002208DF8250029
:101930000A208DF8260002208DF827000320ADF83C
:10194000200001208DF81C0006208DF81D000120CC
:101950008DF81E001FE03148844218D10F20ADF8E9
:101960002E0000208DF8250005208DF8260000208F
:101970008DF827000320ADF8200002208DF81C0010
:1019800005208DF81D0002208DF81E0003E0214681
:101990001E4800F0FDF909A91C4800F033FA0120A7
:1019A0008DF80C008DF80D008DF80E0004208DF8D8
:1019B00008000020019004208DF8090001A804907F
:1019C00000200590069003A9104800F05BF8144928
:1019D000032000F009FD1349032000F005FD00235A
:1019E0001A461946184600F04FF90022012114202A
:1019F00001F006F90221054800F0D6FA0949042051
:101A000000F0F2FC0CB010BD000C0140006400407E
:101A100085450100A086010048E8010020A10700DB
:101A2000180300206803002010B50446206820F445
:101A3000803020600548844203D1001400F018FE75
:101A400003E04FF4001000F013FE10BD00640040EE
:101A500010B504460A48844208D140F2194001F00A
:101A600019FA40F2194001F005FA07E040F21A4075
:101A700001F010FA40F21A4001F0FCF910BD00002C
:101A80000064004070B502464FF6FF74002309B9A8
:101A9000002070BD106820F002001060106840F057
:101AA0000100106000E0641E506800F0010008B9F9
:101AB000002CF8D1506800F0010008B90020E8E7D8
:101AC000087C4FF0E06505EA00604D7C4FF470261D
:101AD00006EA054528438D7C4FF4E00606EA0555E5
:101AE00028438D8A6D1EC5F309052843D062D1E9CC
:101AF000025040EA05034878012802D123F004038C
:101B000001E043F004038878012817D143F0100363
:101B1000486888B14868007800F0200003434868AE
:101B2000007900F07F004D686D794FF4FE4606EABB
:101B300005252843906203E00020AAE723F0100364
:101B40000878012802D143F0010301E023F00103EA
:101B50001362106820F0010010604FF6FF7400E07F
:101B6000641E506800F0010008B1002CF8D10CB9D7
:101B700000208EE701208CE710B50021837A012236
:101B800002FA03F13E4A126842F001023C4B1A602D
:101B90003B4A1C3212688A43394B1C331A60C28993
:101BA000DAB9374A0C3212688A43354B0C331A6063
:101BB000C288344B03EA024243881A434389304CBB
:101BC000403444F8332082882E4B03EA02420388D3
:101BD0001A43438904EBC3035A60C289012A1BD10B
:101BE000274A0C3212680A43254B0C331A600288CC
:101BF000244B03EA024243881A434389204C403471
:101C000044F8332082881F4B03EA0242C3881A43F8
:101C1000438904EBC3035A6082893AB9184A121DFA
:101C200012688A43164B1B1D1A6006E0144A121DE7
:101C300012680A43124B1B1D1A6002893AB9104AF6
:101C4000143212688A430E4B14331A6006E00C4AB1
:101C5000143212680A430A4B14331A60027C012AB8
:101C600006D1074A1C3212680A43054B1C331A601E
:101C7000034A126822F00102014B1A6010BD0000F5
:101C8000006600400000FFFFF0B585B004460D4639
:101C900016461F466946012000F0A6FBADF80A7003
:101CA0000020ADF80C000120ADF80E008DF81000FA
:101CB00036B1012E1AD0022E2ED0032E60D145E06F
:101CC0000020ADF808004FF6FF7000EA4410ADF8B0
:101CD00000000020ADF802004FF6FF7000EA45104A
:101CE000ADF804000020ADF806004BE00120ADF88F
:101CF00008004FF6FF7000EA4410ADF80000002025
:101D0000ADF802004FF6FF7000EA4510ADF8040090
:101D10000020ADF8060035E00020ADF80800C4F35F
:101D20004F30ADF800004FF6FF7000EAC400001D10
:101D3000ADF80200C5F34F30ADF804004FF6FF7068
:101D400000EAC500001DADF806001BE00120ADF85B
:101D50000800C4F34F30ADF800004FF6FF7000EA02
:101D6000C400001DADF80200C5F34F30ADF804000B
:101D70004FF6FF7000EAC500001DADF8060001E057
:101D800000BFFEE700BF6846FFF7F6FE05B0F0BDF6
:101D90002DE9F04104460E464FF0010818488642EE
:101DA00029D80121204600F0CFFB012818D1E7698E
:101DB00007F04047256A05F0010058B945F00105D4
:101DC0002562304600F072FC3843E06125F00105E1
:101DD000256207E0304600F069FC3843E06101E02D
:101DE0004FF000080221204600F0AEFB012804D08D
:101DF0004FF0000801E04FF000084046BDE8F081D8
:101E000040420F00F0B502464FF6FF7400201568FF
:101E100025F002051560156845F00105156000E024
:101E2000641E556805F001050DB9002CF8D1556800
:101E300005F001050DB90020B5E0136A03F00105B6
:101E40007DBB43F0010313620D784FF0404606EA74
:101E500085754E784FF0F85707EA066635438E7859
:101E60004FF4702707EA06468F784FF4E05C0CEADF
:101E700087173E433543CE784FF4E00707EA06560E
:101E8000CF784FF4C04C0CEA87273E4335434E8948
:101E9000761EC6F309063543D56123F001031362AC
:101EA00029E0FFE70D784FF0404606EA85754E7849
:101EB0004FF0F85707EA066635438E784FF47027DF
:101EC00007EA06468F784FF4E05C0CEA87173E433A
:101ED0003543CE784FF4E00707EA0656CF784FF443
:101EE000C04C0CEA87273E4335434E89761EC6F325
:101EF00009063543D5610D79012D04D1156845F0EA
:101F00008005156003E0156825F0800515604D79A2
:101F1000012D04D1156845F04005156003E01568F2
:101F200025F0400515608D79012D04D1156845F027
:101F30002005156003E0156825F020051560CD79B2
:101F4000012D04D1156825F01005156003E0156812
:101F500045F0100515600D7A012D04D1156845F086
:101F60000805156003E0156825F0080515604D7A31
:101F7000012D04D1156845F00405156003E01568CE
:101F800025F004051560156825F0010515604FF66C
:101F9000FF7400E0641E556805F001050DB1002CCA
:101FA000F8D104B10120F0BD42690A434261704793
:101FB000F8B50026002500F5D87707EB01173F6834
:101FC00007F004071772177A3FB900F5D87707EBC7
:101FD00001173F687F0D176006E000F5D87707EB23
:101FE00001173F68FF08576000F5D87707EB011726
:101FF0003F6807F00207577200F5DA7707EB011721
:102000003F683F0A82F84B7000F5DA7707EB01175B
:102010003F6807F08007FF0982F84C70076A07F0F5
:102020000106002E51D192F84C70EFBB00F5DA7723
:1020300007EB01173F6807F00F07977200F5DC7791
:1020400007EB01173F68D77200F5DC7707EB011744
:102050003F684FEA172C82F80CC000F5DC7707EBDD
:1020600001173F684FEA174C82F80DC000F5DC7786
:1020700007EB01173F684FEA176C82F80EC000F5B6
:10208000DE7707EB01173F68D77300F5DE7707EBC4
:1020900001173F684FEA172C82F810C000F5DE7771
:1020A00007EB01173F6800E00DE04FEA174C82F89C
:1020B00011C000F5DE7707EB01173F684FEA176C98
:1020C00082F812C049E000BFFEE700F5DA7707EBBF
:1020D00001173F6807F00F05082D01D8957206E03B
:1020E000A5F10907DFF888C01CF80770977200F5A2
:1020F000DA7707EB01173F68C7F3401782F84D7096
:1021000000F5DA7707EB01173F68C7F3001782F88D
:102110004E70977ABB08012B04D1977A042F01D017
:102120005F1CFBB202F10B0700973BB900F5DC77AF
:1021300007EB01173C68009F3C600EE00BE000F5E8
:10214000DC7707EB01173C68009F3C60009F3F1D58
:1021500000975F1EFBB2002BF1D121B9C76847F091
:102160002007C76003E0076947F020070761F8BD53
:10217000485500082DE9F84103460A46002100248D
:10218000002600270025986800F08060B0F1806F7D
:1021900000D110E0986800F00060B0F1006F01D14C
:1021A000012108E0986800F08050B0F1805F01D113
:1021B000022100E00321032902D10320BDE8F881B8
:1021C00003F5C07000EB0110006800F0010C03F58E
:1021D000C07000EB0110C0F800C0107AB8B91088C8
:1021E000DFF8FCC10CEA405092F809C040EA0C004C
:1021F00003F5C07C0CEB011CDCF800C040EA0C00CD
:1022000003F5C07C0CEB011CCCF800001AE06FF069
:10221000070C50680CEAC00092F808C040EA0C00B5
:1022200092F809C040EA0C0003F5C07C0CEB011CDD
:10223000DCF800C040EA0C0003F5C07C0CEB011C8C
:10224000CCF8000092F84B00F0BB03F5C27000EB35
:102250000110006820F0BF0C03F5C27000EB011004
:10226000C0F800C003F5C27000EB0110006892F8DE
:102270000AC040EA0C0003F5C27C0CEB011CCCF850
:102280000000907B4FF07F4C0CEA006092F80DC08C
:102290004FF47F0808EA0C4C40EA0C0092F80CC09E
:1022A0004FF47F4808EA0C2C40EA0C0092F80BC06F
:1022B00040EA0C0003F5C47C0CEB011CCCF80000D8
:1022C000907C4FF07F4C00E01CE00CEA006092F83C
:1022D00011C04FF47F0808EA0C4C40EA0C0092F859
:1022E00010C04FF47F4808EA0C2C40EA0C0092F82A
:1022F0000FC040EA0C0003F5C67C0CEB011CCCF8C7
:1023000000005EE0186A00F00107002F57D0907AB5
:10231000082802D8907A054317E000240AE0907A52
:10232000DFF8C0C01CF804C0604501D1012603E0FD
:10233000601CC4B2072CF2D300BF012E03D104F1FC
:102340000900054301E000BFFEE792F84C004001A0
:1023500092F84DC040EA0C1092F84BC040EACC1005
:10236000054303F5C27000EB01100560907A840804
:10237000012C04D1907A042801D0601CC4B202F16F
:102380000B0000904CB90098D0F800C003F5C47061
:1023900000EB0110C0F800C013E00DE00098D0F889
:1023A00000C003F5C47000EB0110C0F800C0009835
:1023B000001D0090601EC4B2002CEFD101E000BFF0
:1023C000FEE703F5C07000EB0110006840F0010C5F
:1023D00003F5C07000EB0110C0F800C00846EDE640
:1023E0000000E0FF4855000810B5024609B900BFDB
:1023F000FEE7052A65D2DFE802F0031521344B0021
:1024000000234B71CB718B714FF480634B810023A0
:102410000B724B7002238B700023CB700B714B72CD
:102420000B7050E00123CB8100230B740B810B80D8
:102430004B808B80CB808B814B8144E04FF4806359
:102440008B8200230B7402234B7401238B740023B3
:102450008B70CB6001234B7000230B708B604B6043
:1024600031E000234B314B708B7001F84B39002069
:1024700005E0002401F10B031C54431CD8B2402892
:10248000F7D300238B724B600B724B720B601AE018
:1024900000234C314B708B7001F84C39002005E063
:1024A000002401F10B031C54431CD8B24028F7D37D
:1024B00000238B724B600B7281F84B304B720B60B8
:1024C00001E000BFFEE700BF10BD000030B50246CE
:1024D0000020002321B1012907D002290FD109E0F2
:1024E0009468144D04EA05030BE09468124D04EA65
:1024F000050306E09468114D04EA050301E000239A
:1025000000BF00BF53B1A3F18064E41E44B10C4D81
:102510002C443CB10B4D2C4444B905E0022007E0AB
:10252000012005E0012003E0012001E0002000BFC0
:1025300000BF30BD030000040003000800000310CA
:1025400003FDFFFB0003FDF710B502460B4600201C
:102550004FF6FF71012B17D1146824F002041460A8
:10256000146844F00104146000E0491E546804F04B
:1025700001040CB90029F8D1546804F001040CB925
:10258000002034E0012032E0022B13D1146824F043
:102590000304146000E0491E546804F003040CB105
:1025A0000029F8D1546804F003040CB100201EE0A7
:1025B00001201CE0042B19D1146824F001041460DC
:1025C000146844F00204146000E0491E546804F0EA
:1025D0000204022C01D00029F7D1546804F002044F
:1025E000022C01D0002002E0012000E0002010BDFC
:1025F00010B510220749084800F0D8FD48B1074837
:102600000168054800F088FC102203490148FDF7E5
:10261000BBFD10BDA4000020B80300202400002052
:1026200001490A680260704703FC010830B518E0F0
:1026300011F8015B048884EA0524048000230EE07D
:10264000048804F400442CB1048841F2210585EA91
:10265000440401E00488640004805C1CE3B2082B9D
:10266000EEDB141EA2F10105AAB2E1D130BD0000DB
:10267000024949688143014A51607047002004E0E3
:102680000349086000BF024909680029FBD170476F
:10269000340000200448006820B103480068401E50
:1026A0000149086070470000340000202DE9FE4F0A
:1026B00081460027B846274A07CA8DE8070002204E
:1026C00000F008FBB0FBF9F69E20B6FBF0FB032000
:1026D000B6FBF0F414E000270FE0F81C611C00FBCF
:1026E00001F5B54201D9AD1B00E0751B0298A84267
:1026F00002D90194009702957F1C9E2FEDD9641E8C
:102700005C4503D34FF6FF708442E4D30521009863
:10271000B0FBF1F80098A0EB08004FF4702101EA3B
:1027200000400099A1EB08014FF4E05202EA811148
:102730000843910201EA08514FF4C04202EA88229C
:10274000114308430199C1F3090140EA010A5046C7
:10275000BDE8FE8F085600080149C86070470000B8
:10276000002002400348006940F0800001490861F0
:10277000704700000020024070B504464FF48010FE
:1027800000F01EF80546B5B90C48006940F002009B
:102790000A49086108464461006940F04000086148
:1027A0004FF4801000F00CF805460448006920F052
:1027B000020002490861284670BD00000020024066
:1027C00070B50546012400BF00F00CF804466D1EEC
:1027D000012C01D1002DF7D1012C00D10524204678
:1027E00070BD000000200E49C96801F0010109B167
:1027F000012013E00A49C96801F0100109B1042061
:102800000CE00749C96801F0040109B1022005E0A4
:102810000349C96801F0080101B1032070470000B5
:10282000002002400548006900F0800020B1044803
:102830000249486003484860704700000020024099
:1028400023016745AB89EFCD70B504460D464FF4C3
:102850008010FFF7B5FF06468EB90A48006940F0C0
:1028600001000849086125604FF48010FFF7A8FFB8
:1028700006460448006920F001000249086130461C
:1028800070BD000000200240416170470161704747
:10289000F0B5044616460025002201F00F0501F0B0
:1028A000100747B1042E05D145F00305E76B1F4320
:1028B000E76300E0354300201EE0012787401F400A
:1028C000C7B122684FEA800C0F2707FA0CF7BA430A
:1028D000870005FA07F73A43282904D101278740E2
:1028E0001F40676105E0482903D1012787401F4049
:1028F00027612260471CB8B20828DED3082022E0F6
:10290000012787401F40E7B16268A0F108074FEA3E
:10291000870C0F2707FA0CF7BA43A0F10807BF008E
:1029200005FA07F73A43282904D1012787401F40B9
:10293000676105E0482903D1012787401F402761CF
:102940006260471CB8B21028DAD3F0BD0246D068E6
:10295000084008B1012070470020FCE7F0B50A46A6
:10296000002300240021002500F00046B6F1004FAE
:1029700002D11D4EF16901E01B4E7168C0F30345A1
:1029800083B200F44016B6F5401F08D121F0E06193
:10299000154E766826F0E066134F7E6012E000F474
:1029A0008016B6F5801F06D1032606FA05F4A1436A
:1029B00041F0E06106E0460D360103FA06F6B14348
:1029C00041F0E06122B1460D360103FA06F63143CB
:1029D00000F00046B6F1004F02D1034EF16101E074
:1029E000014E7160F0BD00000000014086B000F0B3
:1029F00071FCFDF757FF4FF4964002F07FF84FF45B
:102A0000964002F0D5F84FF4964002F029F94FF4C1
:102A100080416348FFF73AFF4FF4FA70FFF730FE4A
:102A20004FF480415E48FFF72FFF5E4800F062FAE6
:102A30005D4800F05FFA5D4800F056FA5C4800F02F
:102A4000D9F85C4800F0D6F85B4800F0D3F85B4852
:102A500000F0D0F85A48FFF7E3FD59480068401CE1
:102A6000E0B94FF4FA70FFF70BFE4FF480414C4889
:102A7000FFF70CFF6420FFF703FE4FF48041484846
:102A8000FFF702FF2E20474908731A2048733C20A5
:102A900088734C480168434800F03EFA00214148E1
:102AA00000F008FA474800F019FA46480068401C50
:102AB00018B90020444908703DE04248006840F2DF
:102AC000E931884203D101203F49087033E03D4895
:102AD000006840F2EA31884203D102203A49087086
:102AE00029E03848006840F2EB31884203D10320E6
:102AF000354908701FE033480068B0F57B7F03D18B
:102B000004203149087016E02E48006840F2ED318B
:102B1000884203D105202C4908700CE02948006840
:102B200040F2EE31884203D106202749087002E0C6
:102B30000020254908702448007801F0E9FE1022A1
:102B400018491948FDF720FB29E0204800780128A2
:102B500019D11448C06810221249009002A8FDF74C
:102B600013FB1948007802A90EC900F0DBFB1648D8
:102B7000007840B110220B4902A8FDF705FB02A81E
:102B80000FC800F0F1F91048007840B9102205494B
:102B900002A8FDF7F9FA02A80FC800F0E5F9D4E79A
:102BA00000100140B8030020A40000201400002001
:102BB000B4000020C8000020DC000020F00000204D
:102BC00030000020240000202800002054000020B5
:102BD00070B50446049D601AEE1A7043561A90FBB5
:102BE000F6F0184470BD000001480068704700000E
:102BF000380000200021016041608160C1607047A1
:102C00002DE9F04103460D46164600240027A04654
:102C10002448006800F4E060B0F5A06F15D006DC31
:102C2000B0F5407F18D0B0F5806F19D110E0B0F545
:102C3000C06F06D0B0F5E06F12D100274FF0040846
:102C400015E001274FF0030811E00227B8460EE017
:102C500003274FF001080AE004274FF0000806E0C0
:102C60004FF4A06000F022F80227B84600BF00BF72
:102C7000C7F1040005FA00F4C8F104010F20C840B0
:102C80003040044324010848C45403F01F010120CC
:102C900088405911890001F1E021C1F80001BDE827
:102CA000F08100000CED00E000E400E00249014387
:102CB000024A1160704700000000FA050CED00E0C8
:102CC000024A0A400243024B1A60704780FFFF1F0E
:102CD00008ED00E02DE9F14F8EB000200C9055A0DA
:102CE00090E8004CC068CDE905BECDF810A0079073
:102CF00051A0D0F804A00068CDE9020A0FF2381AFA
:102D0000DAE9000ACDE9000A4E484068C0F38100C4
:102D10000D900D9820B1012804D0022856D103E06F
:102D2000494A55E0484A53E04648406800F4803933
:102D3000B9F5803F2FD14348C06A00F080400B9026
:102D40000B9808B9404900E040493E48C06A00F489
:102D500080300A900A98B0F5803F12D13948C06A95
:102D6000C0F30310401C08903648C06AC0F303202B
:102D7000871C112F00D114270898B1FBF0F000FB3D
:102D800007F13048C06A00F00F00401C0990099814
:102D9000B1FBF0F100E02E492A484068C0F38343BC
:102DA0002848406800F0005008B143F010030F2B92
:102DB00001D29B1C00E05B1C01FB03F20F2B04D132
:102DC00001EB4100400000EB510201E01E4A00BF50
:102DD00000BF1C484068C0F3031504A8465D22FAF2
:102DE00006F418484068C0F3022502A8465D24FA9C
:102DF00006FC14484068C0F3C2251DF8056024FA9B
:102E000006F80E9830B1012806D0022806D0032813
:102E10000AD106E00C9208E00C9406E0CDF830C030
:102E200003E0CDF8308000E000BF00BF0C980FB089
:102E3000BDE8F08F00000000000000000102030464
:102E4000060708090010024000127A00006CDC023C
:102E500000093D00064A02EB9011096800F01F03CB
:102E600001229A401143024B03EB9012116070470C
:102E700000100240064A02EB9011096800F01F039F
:102E800001229A409143024B03EB9012116070476C
:102E900000100240064A02EB9011096800F01F037F
:102EA00001229A401143024B03EB901211607047CC
:102EB0000010024030B50246074800EB810314467B
:102EC000002004E01D682560001D241D1B1D102826
:102ED000F8D3012030BD000000FC010801490A6858
:102EE0000260704718FC0108002101704170817078
:102EF000C17070470021017041708170C170017113
:102F000041718171C171017241728172C17201732B
:102F100041738173C17370472DE9F84304468846B5
:102F2000FFF780FC3C20FFF717FC0E48FFF724FC5E
:102F30000020009025460B4E002707E03046296808
:102F4000FFF782FC00903F1D2D1D361D102FF5D37D
:102F5000414604481830FFF777FC0090FFF702FC69
:102F6000BDE8F88300FC010810B50024754800781E
:102F700010B9FF20734908707248407810B9FF20DB
:102F8000704948706F48807810B9FF206D4988708B
:102F90006C48C07810B9FF206A49C8706948007849
:102FA000FF281AD067480078B42816DA65480078F8
:102FB0006449497B88420BDD624800786149097B9E
:102FC000884205DA5F4800795E49897B884204DBE4
:102FD00001205D490870012461E05A484078FF28CB
:102FE0001AD058484078B42816DA564840785549DF
:102FF000497B88420BDD534840785249097B88421F
:1030000005DA504840794F49897B884204DB01202A
:103010004D490870012442E04A488078FF281AD0C0
:1030200048488078B42816DA464880784549497B74
:1030300088420BDD434880784249097B884205DAA3
:10304000404880793F49897B884204DB01203E4922
:103050000870012423E03B48C078FF281AD0394883
:10306000C078B42816DA3748C0783649497B884298
:103070000BDD3448C0783349097B884205DA314892
:10308000C0793049897B884204DB01202E490870D1
:10309000012404E000202C4908702C4908702A48BB
:1030A0000078012809D12948007830B9FFF79CFD44
:1030B00027490860012025490870FFF795FD24493C
:1030C0000968401A46F2A811884237D274B12148E3
:1030D000007858B92048007840B900F057F801202E
:1030E0001C490870FFF780FD1C49086019480078EA
:1030F000A0B1FFF779FD19490968401A1849096814
:1031000088420BD300F032F80020124908700120E9
:1031100011490870FFF768FD124908600E480078F1
:1031200070B1FFF761FD0F490968401A0E4909683F
:10313000884205D300200849087001E000F016F825
:1031400010BD0000B803002085000020840000208E
:1031500098000020860000208700002090000020BA
:103160008C000020940000208800002010B54FF44F
:1031700080410548FFF7EAFB012803D1810302489B
:10318000FFF782FB10BD00000010014010B54FF4A6
:1031900080410548FFF7DAFB20B94FF4804102482F
:1031A000FFF774FB10BD00000010014030B503466E
:1031B0000C46002107E0585C655CA84201D0002065
:1031C00030BD481CC1B29142F5DB0120F8E7000098
:1031D00000200021374A126842F48032354B1A60D1
:1031E00000BF401C334A126802F4003119B94FF68F
:1031F000FF729042F5D12F4A126802F400320AB9E8
:1032000000BFFEE72C4A126822F00702D21C2A4BAC
:103210001A60284A5268274B5A601A4652685A6008
:103220001A46526842F480625A601A465268234B2A
:103230001A40204B5A601A465268214B1A431D4BC4
:103240005A601A46D26A1F4B1A401A4BDA621A4663
:10325000D26A1D4B1A43174BDA621A46126842F0C3
:1032600080621A6000BF134A126802F00062002AEE
:10327000F9D0104A126842F080720E4B1A6000BFFB
:103280000C4A126802F00072002AF9D0094A52680A
:1032900022F00302074B5A601A46526842F00202BB
:1032A0005A6000BF034A526802F00802002AF9D0AF
:1032B000704700000010024000200240FFFFC3DF03
:1032C0000000352000F0FEBF1908010010B5FFF71F
:1032D0007FFF10BD10B5124800684FF47A71B0FB43
:1032E000F1F4601EB0F1807F01D301200FE0601E79
:1032F0004FF0E02148610F214FF0FF30FDF70EFB4A
:1033000000204FF0E021886107200861002008B10B
:1033100000BFFEE70021481EFDF700FB10BD0000C6
:103320009C0000200FB4F0B593B004469DF86400F3
:1033300010B9FF208DF864009DF8650010B9FF20DA
:103340008DF865009DF8660010B9FF208DF86600C5
:103350009DF8670010B9FF208DF86700022C7CD122
:10336000FFF742FCFE490968401AC828C1F09D8257
:103370001422FCA10EA8FCF707FF0EA8FCF728FFFB
:10338000C5B22A460EA9FC48FDF72BFB00200A9087
:103390000B900C900D909DF87300022803D1012032
:1033A0008DF8310012E09DF87300012803D1002050
:1033B0008DF831000AE09DF87300032803D1022044
:1033C0008DF8310002E001208DF831009DF83000C9
:1033D00020F00100401C8DF830009DF8310080B9CC
:1033E0009DF864008DF82C009DF865008DF82D0087
:1033F0009DF866008DF82E009DF867008DF82F006F
:10340000D2E09DF83100012866D19DF86400FF28C4
:1034100011D09DF8640000EE100AB8EE400ADFED0E
:10342000D70A20EE200ABCEEC00A10EE100AC0B285
:103430008DF82C0002E0FF208DF82C009DF865002F
:10344000FF2813D09DF8650000EE100AB8EE400A80
:10345000DFEDCA0A20EE200A00E0E6E1BCEEC00A79
:1034600010EE100AC0B28DF82D0002E0FF208DF89A
:103470002D009DF86600FF2811D09DF8660000EE33
:10348000100AB8EE400ADFEDBD0A20EE200ABCEEBD
:10349000C00A10EE100AC0B28DF82E0002E0FF2024
:1034A0008DF82E009DF86700FF2811D09DF8670069
:1034B00000EE100AB8EE400ADFEDB00A20EE200A56
:1034C000BCEEC00A10EE100AC0B28DF82F006BE0FF
:1034D000FF208DF82F0067E09DF83100022863D1AE
:1034E0009DF86400FF2811D09DF8640000EE100ADA
:1034F000B8EE400ADFEDA20A20EE200ABCEEC00AB8
:1035000010EE100AC0B28DF82C0002E0FF208DF8FA
:103510002C009DF86500FF2811D09DF8650000EE95
:10352000100AB8EE400ADFED960A20EE200ABCEE43
:10353000C00A10EE100AC0B28DF82D0002E0FF2084
:103540008DF82D009DF86600FF2811D09DF86600CB
:1035500000EE100AB8EE400ADFED890A20EE200ADC
:10356000BCEEC00A10EE100AC0B28DF82E0002E0C8
:10357000FF208DF82E009DF86700FF2811D09DF8E0
:10358000670000EE100AB8EE400ADFED7D0A20EE7B
:10359000200ABCEEC00A10EE100AC0B28DF82F004F
:1035A00002E0FF208DF82F009DF86400FF280BD06B
:1035B0009DF86500FF2807D09DF86600FF2803D01E
:1035C0009DF86700FF2805D19DF8300020F001002C
:1035D0008DF830009DF86C0016280BDD9DF86D000D
:1035E000162807DD9DF86E00162803DD9DF86F0094
:1035F000162806DC9DF8300020F0080008308DF811
:1036000030009DF86400FF2819D09DF864009DF8F3
:103610007110884205DD9DF864009DF870108842A5
:103620000DDB9DF8300020F0200020308DF83000B8
:103630009DF82B0020F00100401C8DF82B009DF818
:103640006500FF2819D09DF865009DF8711088422B
:1036500005DD9DF865009DF8701088420DDB9DF832
:10366000300020F0200020308DF830009DF82B0035
:1036700020F00400001D8DF82B009DF86600FF2847
:1036800019D09DF866009DF87110884205DD9DF8FF
:1036900066009DF8701088420DDB9DF8300020F028
:1036A000200020308DF830009DF82B0020F0100015
:1036B00010308DF82B009DF86700FF2819D09DF879
:1036C00067009DF87110884205DD9DF867009DF840
:1036D000701088420DDB9DF8300020F02000203073
:1036E0008DF830009DF82B0020F0400040308DF820
:1036F0002B009DF868009DF8721088420DDB9DF844
:10370000300020F0200020308DF830009DF82B0094
:1037100020F00100401C8DF82B009DF869009DF8F9
:10372000721088420DDB9DF8300020F02000203020
:103730008DF830009DF82B0020F00400001D8DF85E
:103740002B009DF86A009DF87210884221DB9DF8DD
:10375000300020F0200020308DF8300012E0000012
:103760006000002024537461727453656E64434199
:103770004E46442300000000003801407B81B03FEA
:103780007B81303F9DF82B0020F0100010308DF829
:103790002B009DF86B009DF8721088420DDB9DF8A0
:1037A000300020F0200020308DF830009DF82B00F4
:1037B00020F0400040308DF82B000120FE4981F8B8
:1037C0004B0081F84C00002081F84D0008724872CF
:1037D0004FF46870086010208872F84800788DF8FF
:1037E0002A00F6480078401CF449087010220AA903
:1037F000F1480B30FCF7C8FCEF48FDF7CBFFEE4873
:10380000FDF736F8FFF7F0F9ED4908601422EDA155
:1038100005A8FCF7B9FC05A8FCF7DAFCC5B22A46F6
:1038200005A9ED48FDF7DDF8FEE3012C77D1FFF7A0
:10383000DBF9EA490968401AC828F5D31822E8A13B
:103840000DA8FCF7A1FC0DA8FCF7C2FCC5B22A46E6
:103850000DA9E148FDF7C5F800200B900C909DF8EC
:103860007300022803D109208DF82D0011E09DF886
:103870007300012802D18DF82D000AE09DF8730035
:10388000032803D111208DF82D0002E011208DF8BE
:103890002D009DF82D0080BB9DF86400FF2804D00A
:1038A0009DF864008DF82E0002E0FF208DF82E00B8
:1038B0009DF86500FF2804D09DF865008DF82F0065
:1038C00002E0FF208DF82F009DF86600FF2804D04D
:1038D0009DF866008DF8300002E0FF208DF8300082
:1038E0009DF86700FF2804D09DF867008DF831002F
:1038F000B2E0FF208DF83100AEE0FFE79DF82D002B
:10390000092841D19DF86400FF2809D09DF8640082
:10391000052190FBF1F0C0B28DF82E0003E0F0E13C
:10392000FF208DF82E009DF86500FF2808D09DF837
:103930006500052190FBF1F0C0B28DF82F0002E088
:10394000FF208DF82F009DF86600FF2808D09DF815
:103950006600052190FBF1F0C0B28DF8300002E066
:10396000FF208DF830009DF86700FF2808D09DF8F3
:103970006700052190FBF1F0C0B28DF831006BE0DB
:10398000FF208DF8310067E09DF82D00112863D1EC
:103990009DF86400FF2811D09DF8640000EE100A25
:1039A000B8EE400A5FED8A0A20EE200ABCEEC00A9B
:1039B00010EE100AC0B28DF82E0002E0FF208DF844
:1039C0002E009DF86500FF2811D09DF8650000EEDF
:1039D000100AB8EE400A5FED960A20EE200ABCEE0F
:1039E000C00A10EE100AC0B28DF82F0002E0FF20CE
:1039F0008DF82F009DF86600FF2811D09DF8660015
:103A000000EE100AB8EE400A5FEDA30A20EE200A8D
:103A1000BCEEC00A10EE100AC0B28DF8300002E011
:103A2000FF208DF830009DF86700FF2811D09DF829
:103A3000670000EE100AB8EE400A5FEDAF0A20EE14
:103A4000200ABCEEC00A10EE100AC0B28DF8310098
:103A500002E0FF208DF831009DF86C0016280DDC87
:103A60009DF82C0020F00400001D8DF82C009DF81E
:103A70002C0020F0100010308DF82C009DF86D0007
:103A800016280DDC9DF82C0020F00400001D8DF898
:103A90002C009DF82C0020F0200020308DF82C0008
:103AA0009DF86E0016280DDC9DF82C0020F0040017
:103AB000001D8DF82C009DF82C0020F040004030B7
:103AC0008DF82C009DF86F0016280DDC9DF82C0059
:103AD00020F00400001D8DF82C009DF82C0020F033
:103AE000800080308DF82C009DF86400FF2819D0EC
:103AF0009DF864009DF87110884205DD9DF8640012
:103B00009DF8701088420DDB9DF82C0020F0040019
:103B1000001D8DF82C009DF82C0020F010001030B6
:103B20008DF82C009DF86500FF2819D09DF86500E0
:103B30009DF87110884205DD9DF865009DF87010B4
:103B400088420DDB9DF82C0020F00400001D8DF84C
:103B50002C009DF82C0020F0200020308DF82C0047
:103B60009DF86600FF2819D09DF866009DF8711039
:103B7000884205DD9DF866009DF8701088420DDBD7
:103B80009DF82C0020F00400001D8DF82C009DF8FD
:103B90002C0020F0400040308DF82C009DF867008C
:103BA000FF283BD09DF867009DF87110884227DD03
:103BB0009DF8670020E0000018030020640000204A
:103BC000600000202446696E69736853656E644323
:103BD000414E4644230000000038014068000020A8
:103BE00024537461727453656E6443414E436C6137
:103BF00073736963230000009DF8701088420DDB29
:103C00009DF82C0020F00400001D8DF82C009DF87C
:103C10002C0020F0800080308DF82C009DF868008A
:103C20009DF87210884206DB9DF82C0020F01000F1
:103C300010308DF82C009DF869009DF872108842B4
:103C400006DB9DF82C0020F0200020308DF82C00A1
:103C50009DF86A009DF87210884206DB9DF82C00E2
:103C600020F0400040308DF82C009DF86B009DF84E
:103C70007210884206DB9DF82C0020F08000803016
:103C80008DF82C000020FB4981F84B0081F84C0096
:103C900081F84D000872487240F293500860062087
:103CA00088729DF86400FF280BD09DF86500FF28FE
:103CB00007D09DF86600FF2803D09DF86700FF2815
:103CC00002D100208DF82D00EA480B300B990160DD
:103CD000BDF8301081800B38FCF7CAFDFEF784FF79
:103CE000E54908601822E5A105A8FCF74DFA05A8EA
:103CF000FCF76EFAC5B22A4605A9E648FCF771FE44
:103D000092E5032C7ED1FEF76FFFE3490968401A64
:103D100047F23051884202D90020E04908709DF8EE
:103D20006400FF2811D09DF8640000EE100AB8EE80
:103D3000400ADFEDDB0A20EE200ABDEEC00A10EEDD
:103D4000100AC0B28DF8470002E0FF208DF847004E
:103D50009DF86500FF2811D09DF8650000EE100A5F
:103D6000B8EE400ADFEDCE0A20EE200ABDEEC00A12
:103D700010EE100AC0B28DF8480002E0FF208DF866
:103D800048009DF86600FF2811D09DF8660000EEFF
:103D9000100AB8EE400ADFEDC20A20EE200ABDEE9E
:103DA000C00A10EE100AC0B28DF8490002E0FF20F0
:103DB0008DF849009DF86700FF2811D09DF8670035
:103DC00000EE100AB8EE400ADFEDB50A20EE200A38
:103DD000BDEEC00A10EE100AC0B28DF84A0002E033
:103DE000FF208DF84A00FE208DF84B009DF86400FE
:103DF000FF280DD09DF86500FF2809D09DF86600CA
:103E0000FF2800E066E103D09DF86700FF280DD190
:103E10009DF8450020F0080008308DF845009DF819
:103E2000440020F00200801C8DF844009DF86400DE
:103E3000FF2820D09DF864009DF87110884205DDB0
:103E40009DF864009DF87010884214DB9DF84500D1
:103E500020F0080008308DF845009DF8450020F05E
:103E60000200801C8DF845009DF8460020F00800F7
:103E700008308DF846009DF86500FF2820D09DF899
:103E800065009DF87110884205DD9DF865009DF87C
:103E90007010884214DB9DF8450020F008000830BF
:103EA0008DF845009DF8450020F00200801C8DF83B
:103EB00045009DF8460020F0100010308DF84600B7
:103EC0009DF86600FF2820D09DF866009DF87110CF
:103ED000884205DD9DF866009DF87010884214DB6D
:103EE0009DF8450020F0080008308DF845009DF849
:103EF000450020F00200801C8DF845009DF846002A
:103F000020F0200020308DF846009DF86700FF2843
:103F100020D09DF867009DF87110884205DD9DF85E
:103F200067009DF87010884214DB9DF8450020F072
:103F3000080008308DF845009DF8450020F002008B
:103F4000801C8DF845009DF8460020F04000403070
:103F50008DF84600FEF748FE52490968401AB0F550
:103F60007A7F38D3142250A10CA8FCF70DF90CA8C5
:103F7000FCF72EF9C5B22A460CA94648FCF731FDDC
:103F800000203C4981F84B0081F84C0081F84D003D
:103F90000872487240F2FF2008600820887201F120
:103FA0000B0011990160129941600B38FCF760FC1D
:103FB000FEF71AFE3B490860142240A107A8FCF74F
:103FC000E3F807A8FCF704F9C5B22A4607A9314867
:103FD000FCF707FD00BFFEF707FE3D490968401AE0
:103FE000B0F5B47F44D314222FA10CA8FCF7CCF871
:103FF0000CA8FCF7EDF8C5B22A460CA92548FCF739
:10400000F0FC00201B4981F84B0081F84C0081F83E
:104010004D00087248724FF4816008600820887271
:10402000FD20C872142100E06FE3124801730421DF
:1040300041730F2181733821C173CF210174D721BE
:10404000417423218174FCF713FCFEF7CDFD204958
:104050000860142219A107A8FCF796F807A8FCF736
:10406000B7F8C5B22A4607A90A48FCF7BAFC00BF50
:104070004BE3000018030020680000202446696E0E
:1040800069736853656E6443414E436C6173736931
:104090006323000000380140480000205400002045
:1040A0006F8130406C00002024537461727453653A
:1040B0006E6443414E4D6572632300002446696E71
:1040C00069736853656E6443414E4D6572632300A6
:1040D00070000020042C71D1FEF786FDFE490968AE
:1040E000401A47F23051884202D90020FB4908703B
:1040F0000020119012900F9010909DF86400FF28FE
:1041000011D09DF8640000EE100AB8EE400A5FED91
:104110001C0A20EE200ABDEEC00A10EE100AC0B242
:104120008DF8470002E0FF208DF847009DF86500FC
:10413000FF2811D09DF8650000EE100AB8EE400A85
:104140005FED290A20EE200ABDEEC00A10EE100A2B
:10415000C0B28DF8460002E0FF208DF846009DF8C1
:104160006600FF2811D09DF8660000EE100AB8EE38
:10417000400A5FED350A20EE200ABDEEC00A10EEBF
:10418000100AC0B28DF8450002E0FF208DF845000E
:104190009DF86700FF2812D09DF8670000EE100A16
:1041A000B8EE400A5FED420A20EE200ABDEEC00ADA
:1041B00010EE100AC0B28DF8440003E0A6E2FF2022
:1041C0008DF844009DF86400FF280BD09DF8650031
:1041D000FF2807D09DF86600FF2803D09DF86700F0
:1041E000FF280DD19DF8480020F0100010308DF808
:1041F00048009DF84A0020F010008DF84A000CE0BD
:104200009DF8480020F010008DF848009DF84A0005
:1042100020F0100010308DF84A009DF86400FF284F
:1042200025D09DF864009DF87110884205DD9DF849
:1042300064009DF87010884219DB9DF8490020F059
:104240000100401C8DF849009DF84700302807DA2E
:104250009DF8490020F0C00080308DF8490006E04C
:104260009DF8490020F0C00040308DF849009DF8CD
:104270006500FF2825D09DF865009DF871108842E3
:1042800005DD9DF865009DF87010884219DB9DF8EA
:10429000490020F00100401C8DF849009DF84600BF
:1042A000302807DA9DF8490020F0300020308DF8E2
:1042B000490006E09DF8490020F0300010308DF8EC
:1042C00049009DF86600FF2825D09DF866009DF8FE
:1042D0007110884205DD9DF866009DF870108842D7
:1042E00019DB9DF8490020F00100401C8DF84900C1
:1042F0009DF84500302807DA9DF8490020F00C00B1
:1043000008308DF8490006E09DF8490020F00C00C7
:10431000001D8DF849009DF86700FF2825D09DF805
:1043200067009DF87110884205DD9DF867009DF8D3
:104330007010884219DB9DF8490020F00100401CF4
:104340008DF849009DF84400302807DA9DF84A00AE
:1043500020F00300801C8DF84A0006E09DF84A001A
:1043600020F00300401C8DF84A009DF86C001628D0
:104370000DDC9DF8490020F00100401C8DF849003B
:104380009DF8490020F0C00080308DF849009DF86C
:104390006D0016280DDC9DF8490020F00100401C3E
:1043A0008DF849009DF8490020F0300020308DF84C
:1043B00049009DF86E0016280DDC9DF8490020F09C
:1043C0000100401C8DF849009DF8490020F00C00C8
:1043D00008308DF849009DF86F0016280DDC9DF817
:1043E000490020F00100401C8DF849009DF84A006A
:1043F00020F00300801C8DF84A009DF86800FF281B
:1044000006D09DF868003230C0B28DF83C0002E062
:10441000FF208DF83C009DF86900FF2806D09DF82C
:1044200069003230C0B28DF83D0002E0FF208DF807
:104430003D009DF86A00FF2806D09DF86A003230E2
:10444000C0B28DF83E0002E0FF208DF83E009DF8DE
:104450006A00FF2806D09DF86B003230C0B28DF89C
:104460003F0002E0FF208DF83F005B208DF8400008
:104470005C208DF8410000208DF842008DF843004B
:104480009DF868009DF8711088420DDC9DF8490088
:1044900020F00100401C8DF849009DF8490020F0F3
:1044A000C00040308DF849009DF868009DF87110FB
:1044B00088420DDC9DF8490020F00100401C8DF879
:1044C00049009DF8490020F0300010308DF8490077
:1044D0009DF8680004E0000048000020540000201F
:1044E0009DF8711088420DDC9DF8490020F0010014
:1044F000401C8DF849009DF8490020F00C00001D7B
:104500008DF849009DF868009DF8711088420DDC17
:104510009DF8490020F00100401C8DF849009DF8ED
:104520004A0020F00300401C8DF84A00E148007862
:10453000F0BBFEF759FBE0490968401A96283BD3C7
:104540001422AFF29C410AA8FBF71EFE0AA8FBF753
:104550003FFEC5B22A460AA9D848FCF742FA002015
:10456000D74981F84B0081F84C0081F84D00087262
:10457000487240F2094008600820887201F10B007F
:1045800011990160129941600B38FCF771F9012013
:10459000C84908701422AFF2DC4105A8FBF7F4FD0E
:1045A00005A8FBF715FEC5B22A4605A9C34800E0D9
:1045B00002E0FCF716FA00BFBE48007801285FD180
:1045C000FEF712FBBF490968401AB0F5967F57D332
:1045D0001422AFF22C510AA8FBF7D6FD0AA8FBF76C
:1045E000F7FDC6B232460AA9B448FCF7FAF940F220
:1045F0000C40B34908600220887200259DF84800ED
:104600000121B1EBD01F04D09DF8490000F001005A
:1046100000B10125AC48007840EA0510C1B2A848B5
:10462000017335B9A948A8490978405CA449C87202
:1046300005E0A748A4490978405CA149C872A04890
:10464000FCF716F9A0480078401C9F4908700846FE
:1046500000780F2801DD00200870022095490870BD
:104660001422AFF2A85105A8FBF78EFD05A8FBF7B1
:10467000AFFDC6B2324605A99048FCF7B2F900BFBB
:10468000FEF7B2FA93490968401AB0F57A7F3CD335
:104690001422AFF2EC510AA8FBF776FD0AA8FBF74B
:1046A00097FDC5B22A460AA98448FCF79AF940F258
:1046B0000740834908600820887201F10B000F99B8
:1046C0000160109941600B38FCF7D2F8002079495D
:1046D0000870FEF789FA7849086008460068794949
:1046E0000860754800687B4908601422AFF23461A5
:1046F00005A8FBF749FD05A8FBF76AFDC5B22A46E8
:1047000005A96E48FCF76DF900BFCEE0062C7DD1FF
:1047100000259DF86410C1B19DF86410B42914DC23
:104720009DF864106C4A1268881A002801DB014663
:1047300000E04142012908DB01259DF8640066493B
:1047400008609DF86400654908709DF86510C1B166
:104750009DF86510B42914DC9DF86510604A126854
:10476000881A002801DB014600E04142012908DBEC
:1047700001259DF865005A4908609DF86500574974
:1047800048709DF86610C1B19DF86610B42914DC1C
:104790009DF86610534A1268881A002801DB01460A
:1047A00000E04142012908DB01259DF866004D49E2
:1047B00008609DF86600494988709DF86710C1B18E
:1047C0009DF86710B42914DC9DF86710464A1268FA
:1047D000881A002801DB014600E04142012908DB7C
:1047E00001259DF86700404908609DF867003B4936
:1047F000C870012D1ED1402103A8FBF7DEFC3A480A
:10480000006838490968CDE9001000E04DE03448FF
:104810000368314835A1026803A8FCF75DFD03A8D1
:10482000FBF7D6FCC6B2324603A93648FCF7D9F8E6
:10483000002500BF344E36789DF86470F31B002BC2
:1048400001DB1E4600E05E42052E23DA2E4E76780E
:104850009DF86570F21B002A01DB164600E0564207
:10486000052E17DA284EB6789DF86670F11B0029E0
:1048700001DB0E4600E04E42052E0BDA224EF678A2
:104880009DF86770F01B002801DB064600E04642F9
:10489000052E09DB1D48016819A8FEF73DFB102213
:1048A00019A91948FBF770FC00BF13B0F0BC5DF804
:1048B00014FB000075000020780000200038014043
:1048C000180300207C0000207400002028550008F8
:1048D0003855000880000020B4000020140000209B
:1048E000C8000020DC000020F000002024694341C3
:1048F0005230352C25327825327825327825327899
:104900002300000000440040A400002024000020F8
:1049100010B50446FF207749087048708870C87049
:104920000020087148718871C8711E200872487291
:104930008872C872022C22D16F48FCF75DFF0023F9
:104940001A4640F2FF714FF47870FDF79DF901238C
:10495000002240F2FF71A020FDF796F90223002209
:1049600040F2FF7140F22520FDF78EF9032300226B
:1049700040F2FF7140F2D440FDF786F9B8E0012C17
:104980004BD15D48FCF738FF00231A4640F2FF7117
:1049900040F21630FDF778F90123002240F2FF7152
:1049A00040F25310FDF770F90223002240F2FF712C
:1049B00040F24350FDF768F90323002240F2FF71F3
:1049C00040F20C50FDF760F90423002240F2FF7121
:1049D0004FF48970FDF758F90523002240F2FF716A
:1049E0004FF48860FDF750F90623002240F2FF7172
:1049F00040F2F140FDF748F90723002240F2FF7131
:104A000040F21630FDF740F90823002240F2FF7112
:104A100040F21B50FDF738F96AE0032C12D13648FA
:104A2000FCF7EAFE00231A4640F2FF710220FDF770
:104A30002BF90123002240F2FF7140F29F10FDF795
:104A400023F955E0042C12D12B48FCF7D5FE0023A6
:104A50001A4640F2FF712020FDF716F901230022CB
:104A600040F2FF7140F29F10FDF70EF940E0052C77
:104A700012D12148FCF7C0FE00231A4640F2FF7114
:104A80000220FDF701F90123002240F2FF714FF4EB
:104A90002170FDF7F9F82BE0062C29D11648FCF718
:104AA000ABFE00231A4640F2FF714FF47870FDF719
:104AB000EBF80123002240F2FF71A020FDF7E4F89B
:104AC0000223002240F2FF7140F22520FDF7DCF8BE
:104AD0000323002240F2FF7140F2D440FDF7D4F8E6
:104AE0000423002240F2FF714FF46870FDF7CCF808
:104AF00010BD0000B803002020A1070010B5044637
:104B00004FF4C060FEF7A6F940F20260FEF7A2F98A
:104B100040F20E60FEF79EF94FF4806303224821B5
:104B20002148FDF7B5FE4FF40073032218211E48FB
:104B3000FDF7AEFE1D4800F01FFC21461B4800F0AB
:104B4000BFFB0021194800F0B6FC0021174800F017
:104B5000E3FC0021154800F0CFFC144800F054FCA1
:104B60000821124800F0D0FC0421104800F0ABFCF2
:104B700000210E4800F0ECFB022200212520FEF768
:104B80003FF840F20531094800F05FFC42F20401B1
:104B9000064800F05AFC054800F09DFC322103480D
:104BA00000F0A0FC10BD00000008014000380140EA
:104BB00010B504464FF4C060FEF74CF940F20260B5
:104BC000FEF748F940F21170FEF744F9082303227A
:104BD00004212148FDF75CFE0423032218211E480E
:104BE000FDF756FE1D4800F0C7FB21461B4800F0AC
:104BF00067FB0021194800F05EFC0021174800F017
:104C00008BFC0021154800F077FC144800F0FCFBF9
:104C10000821124800F078FC0421104800F053FCF1
:104C200000210E4800F094FB012211462620FDF7DA
:104C3000E7FF40F20531094800F007FC42F20401A9
:104C4000064800F002FC054800F045FC322103480C
:104C500000F048FC10BD0000000801400044004086
:104C600010B504464FF4C060FEF7F4F840F203605C
:104C7000FEF7F0F840F21270FEF7ECF84FF4006324
:104C8000032204212148FDF703FE4FF48063032231
:104C900018211E48FDF7FCFD1D4800F06DFB214664
:104CA0001B4800F00DFB0021194800F004FC002116
:104CB000174800F031FC0021154800F01DFC144895
:104CC00000F0A2FB0821124800F01EFC042110484D
:104CD00000F0F9FB00210E4800F03AFB0122002110
:104CE0002720FDF78DFF40F20531094800F0ADFBAC
:104CF00042F20401064800F0A8FB054800F0EBFB77
:104D00003221034800F0EEFB10BD0000000C014012
:104D10000048004070B592B006460C46402102A8FB
:104D2000FBF74BFA314602A8FBF759FA002002A91B
:104D30000855062C72D00C2C71D1FE489DF8091034
:104D400001700020FB49487008469DF80A108170E8
:104D50000021C1709DF80B100171002141719DF877
:104D60000C1081710021C171BDF80D10018100216D
:104D70008172BDF80F10A0F80B1000214173BDF82F
:104D80001110A0F811100021C174012512E00020BB
:104D9000019002A8425DE8A101A8FCF79DFA10224B
:104DA000002101A8FBF724FAE54909680844E44911
:104DB00008606D1CE01EA842E9DCE148E1A1026840
:104DC000E248FCF789FAE248E0494988018000207E
:104DD000DF498870DA490860D648FBF741FA0028B5
:104DE00070D110220021D3480830FBF701FAD949CD
:104DF000486010220021CF480B30FBF7F9F9283822
:104E0000D449C86010220021CA48801CFBF7F0F981
:104E100000F00400042803D10A2002E015E233E286
:104E20002020CC4908610846406840B30846007914
:104E3000C9490870C7480079C8490870C548007B4F
:104E4000C5490871C348007C0872C5490978C24A3F
:104E50001278881A002801DB014600E0414205294A
:104E600017DBBD49097BA1B1BE480168BA48FEF70E
:104E700053F81022B849BA48FBF786F909E0B5485B
:104E8000406830B9B3480078B4490870FF20B2498F
:104E90000870B04A5268002A24D0AE4A1268AD4B5E
:104EA0005B68D11A002901DB0A4600E04A42012A68
:104EB0000CDAA84A9268A74BDB68D01A002802DBFC
:104EC000024601E00FE04242012A0BDBA1484068A4
:104ED000A04908600846C0688860224602A9A24826
:104EE000FBF77FFDB0E19348FBF7BAF901287FD1CA
:104EF000102200218F480830FBF77AF99B4948605F
:104F0000102200218B480B30FBF772F928389749A3
:104F1000C860102200218748801CFBF769F900F067
:104F20000400042801D10A2000E020208F490861F4
:104F30000846406840B308460079874948708B4866
:104F40000079864948708948007B834948718748C1
:104F5000007C4872824949787F4A5278881A002832
:104F600001DB014600E04142052917DB7A49097B54
:104F7000A1B17C4801687848FDF7CEFF1022764940
:104F80007748FBF701F909E07848406830B977487D
:104F9000007872494870FF206F494870734A526820
:104FA000002A9FD0714A1268704B5B68D11A0029A1
:104FB00001DB0A4600E04A42012A0CDA6B4A926899
:104FC0006A4BDB68D01A002802DB024601E00FE0E2
:104FD0004242012A86DB6548406864490860084609
:104FE000C0688860224602A95F48FBF7FAFC2BE103
:104FF0005048FBF735F902287FD1102200214D4897
:105000000830FBF7F5F85A4948601022002149485A
:105010000B30FBF7EDF828385549C8601022002105
:105020004448801CFBF7E4F800F00400042801D198
:105030000A2000E020204E4908610846406840B33D
:105040000846007944498870494800794349887086
:105050004748007B404988714548007C8872404938
:1050600089783D4A9278881A002801DB014600E0E1
:105070004142052917DB3849097BA1B1394801684C
:105080003548FDF749FF102233493548FBF77CF8D6
:1050900009E03748406830B9354800782F498870B2
:1050A000FF202D498870324A5268002A9FD0304A2A
:1050B00012682F4B5B68D11A002901DB0A4600E019
:1050C0004A42012A0BDA2A4A9268294BDB68D01A35
:1050D000002801DB024600E04242012A0BDB2448A3
:1050E0004068234908600846C0688860224602A9D3
:1050F0001D48FBF776FCA7E0FFE70E48FBF7B0F88A
:1051000003286ED1102200210A480830FBF770F8FE
:10511000184948601022002106480B30FBF768F858
:1051200028381449C860102200210248801CFBF76F
:105130005FF821E0040100202530327800000000F3
:105140001800002025303458000000001C0000200A
:1051500021000020B4000020B8030020140000202B
:10516000A40000202400002000440040C8000020CB
:10517000DC000020F000002000F00400042801D131
:105180000A2000E02020454908610846406848B3ED
:10519000084600794249C870404800794149C870C2
:1051A0003E48007B3E49C8713C48007CC8723E497D
:1051B000C9783B4AD278881A002801DB014600E012
:1051C0004142052919DB3649097BB1B137480168ED
:1051D0003348FDF7A1FE102231493348FAF7D4FFD6
:1051E0000BE031E0FFE72D48406830B92B480078EC
:1051F0002C49C870FF202A49C870284A52681AB33F
:10520000264A1268254B5B68D11A002901DB0A4641
:1052100000E04A42012A0BDA204A92681F4BDB6801
:10522000D01A002801DB024600E04242012A0BDBD3
:105230001A484068194908600846C06888602246D4
:1052400002A91B48FBF7CDFB24E09DF80900452887
:1052500014D19DF80C00532810D100201549086086
:1052600015490860154908600C49086011498860B3
:10527000114988601149886008498860224602A95E
:105280000B48FBF7AEFB05E0224602A90848FBF7F6
:10529000A8FB00BF00BF12B070BD0000F0000020EE
:1052A000B803002014000020A400002024000020E7
:1052B00000440040B4000020C8000020DC000020B2
:1052C0002DE9F04704460D460027B846B9460026AA
:1052D0001D49601A8C421CD006DC1C48204470B169
:1052E000B0F5806F1FD10FE0B0F5806F16D0B0F52C
:1052F0006C4F18D10320FDF7EDFC074614E00220A7
:10530000FDF7E8FC07460FE00220FDF7E3FC074647
:105310000AE00220FDF7DEFC074605E00220FDF76B
:10532000D9FC074600E000BF00BF07EB5500B0FB0B
:10533000F5F64FF6F07006EA000806F00F0948EAA5
:105340000900A060BDE8F087004C004000BCFFBF32
:105350000A460021D0F8801021F400611143C0F802
:105360008010704701464868C0F308007047C1F3D9
:10537000080242607047000010B504462049601AD8
:105380008C4228D006DC1F48204490B1B0F5806FD5
:1053900033D117E0B0F5806F26D0B0F56C4F2CD12B
:1053A00040F20E30FDF776FD40F20E30FDF762FD63
:1053B00024E040F21140FDF76DFD40F21140FDF791
:1053C00059FD1BE040F21240FDF764FD40F212402F
:1053D000FDF750FD12E040F21340FDF75BFD40F297
:1053E0001340FDF747FD09E040F21440FDF752FD80
:1053F00040F21440FDF73EFD00E000BF00BF10BDCD
:10540000004C004000BCFFBFC16841F40051C160C6
:10541000704710B500EB9112126801F01F040123D0
:10542000A3409A4300EB91131A6010BD10B50246D9
:1054300002EB9110006801F01F040123A340184003
:1054400008B1012010BD0020FCE710B500EB91125F
:10545000126801F01F040123A3401A4300EB9113CB
:105460001A6010BD10B500EB91521268C1F30444EC
:105470000123A3409A4300EB91531A6010BD70B50D
:10548000024600230024C1F38910105801F01F06C2
:105490000125B54000EA050302EB91500068C1F315
:1054A00004460125B54000EA050414B10BB1012002
:1054B00070BD0020FCE7C26822F4C062C260C2680E
:1054C0000A43C26070470A460021C16821F0040106
:1054D0001143C1607047D0F8801041F00101C0F85D
:1054E0008010704750F8842F02F07F4202600268FB
:1054F0000A4340F884297047026922F4405202614D
:1055000002690A43026170470A460021C16821F01E
:1055100008011143C1607047C26822F48052C26022
:10552000C2680A43C26070473D7A55120E4985C26F
:105530005B1C3374682F7037185F70372B6CA0E7D3
:105540007E3916514D0A55120C10141820304000A7
:10555000000000000000000001000000000000004A
:105560000200000000000000030000000000000036
:105570000300000001000000040000000100000022
:10558000050000000100000006000000010000000E
:1055900006000000020000000700000002000000FA
:1055A00008000000020000000900000002000000E6
:1055B00009000000030000000A00000003000000D2
:1055C0000B000000030000000C00000003000000BE
:1055D0000D000000030000000D00000004000000AA
:1055E0000E000000040000000F0000000400000096
:1055F0000F000000050000000F0000000600000082
:105600000F00000007000000000000000000000084
:10561000FFFFFFFF0000000000000000FFFFFFFF92
:1056200000404040404040404040414141414140B5
:10563000404040404040404040404040404040406A
:1056400040050202020202020202020202020202F9
:1056500002202020202020202020200202020202FE
:105660000202909090909090101010101010101056
:105670001010101010101010101010100202020262
:1056800002028888888888880808080808080808A6
:1056900008080808080808080808080802020202A2
:1056A0004000000021560008C856000800000020F5
:1056B000A4000000081300086C570008A400002094
:1056C000240700001813000800000000000000007C
:1056D00000000000000000000000000000000000CA
:1056E00000000000000000000000000000000000BA
:1056F0000000000000000000FFFFFFFF00000000AE
:105700000000000000000000000000000000000099
:105710000000000000000000000000000000000089
:105720000000000000000000000000000000000079
:105730000000000000000000000000000000000069
:105740000000000000000000000000000000000059
:10575000AA0000001400000000000000000000008B
:0C57600000000000000E27070000000001
:04000005080001519D
:00000001FF
